:020000040800F2
:1000000000180020E9100008310E0008350E000825
:1000100000000000000000000000000000000000E0
:10002000000000000000000000000000390E000881
:1000300000000000000000003D0E0008410E000816
:1000400069110008691100086911000869110008A8
:100050006911000869110008691100086911000898
:100060006911000869110008490E0008610E0008B6
:100070006911000869110008691100086911000878
:10008000691100080000000000000000691100086C
:100090000000000069110008710E000869110008D5
:1000A000000000006911000869110008810E0008B5
:1000B00069110008000000006911000869110008BA
:1000C00010B5064C2378002B07D1054B002B02D02E
:1000D000044800E000BF0123237010BD7800002019
:1000E0000000000000470008044B10B5002B03D0AF
:1000F0000349044800E000BF10BDC04600000000F6
:100100007C000020004700080023C25C0133002A65
:10011000FBD1581E70470000002243088B4274D365
:1001200003098B425FD3030A8B4244D3030B8B42F8
:1001300028D3030C8B420DD3FF22090212BA030C01
:100140008B4202D31212090265D0030B8B4219D3E2
:1001500000E0090AC30B8B4201D3CB03C01A524102
:10016000830B8B4201D38B03C01A5241430B8B424A
:1001700001D34B03C01A5241030B8B4201D30B0333
:10018000C01A5241C30A8B4201D3CB02C01A52415A
:10019000830A8B4201D38B02C01A5241430A8B421D
:1001A00001D34B02C01A5241030A8B4201D30B0206
:1001B000C01A5241CDD2C3098B4201D3CB01C01A20
:1001C000524183098B4201D38B01C01A524143092A
:1001D0008B4201D34B01C01A524103098B4201D318
:1001E0000B01C01A5241C3088B4201D3CB00C01A85
:1001F000524183088B4201D38B00C01A52414308FD
:100200008B4201D34B00C01A5241411A00D2014621
:10021000524110467047FFE701B5002000F0F0F8AA
:1002200002BDC0460029F7D076E7704703460B436E
:100230007FD4002243088B4274D303098B425FD3DF
:10024000030A8B4244D3030B8B4228D3030C8B420B
:100250000DD3FF22090212BA030C8B4202D31212F1
:10026000090265D0030B8B4219D300E0090AC30BC6
:100270008B4201D3CB03C01A5241830B8B4201D373
:100280008B03C01A5241430B8B4201D34B03C01A5C
:100290005241030B8B4201D30B03C01A5241C30AD4
:1002A0008B4201D3CB02C01A5241830A8B4201D345
:1002B0008B02C01A5241430A8B4201D34B02C01A2F
:1002C0005241030A8B4201D30B02C01A5241CDD2D4
:1002D000C3098B4201D3CB01C01A524183098B421F
:1002E00001D38B01C01A524143098B4201D34B0108
:1002F000C01A524103098B4201D30B01C01A52416B
:10030000C3088B4201D3CB00C01A524183088B42F1
:1003100001D38B00C01A524143088B4201D34B00DA
:10032000C01A5241411A00D201465241104670474C
:100330005DE0CA0F00D04942031000D34042534051
:1003400000229C4603098B422DD3030A8B4212D311
:10035000FC22890112BA030A8B420CD38901921143
:100360008B4208D3890192118B4204D389013AD080
:10037000921100E08909C3098B4201D3CB01C01A55
:10038000524183098B4201D38B01C01A5241430968
:100390008B4201D34B01C01A524103098B4201D356
:1003A0000B01C01A5241C3088B4201D3CB00C01AC3
:1003B000524183088B4201D38B00C01A5241D9D2DB
:1003C00043088B4201D34B00C01A5241411A00D25C
:1003D0000146634652415B10104601D34042002B58
:1003E00000D54942704763465B1000D3404201B5D7
:1003F000002000F005F802BD0029F8D016E770478C
:100400007047C046012210B5034B044904481A70D6
:1004100003F012F810BDC04694000020AD0000208B
:100420006C030020F0B5DE4657464E464546514A1D
:10043000E0B5136850495C1C8BB0C85414600A289E
:1004400009D0102C00D188E00BB03CBC90469946F6
:10045000A246AB46F0BD012C7FDD002B00DC86E020
:10046000C8784E78844608798F78804648790D7828
:10047000814688798246C8798346087A0290487A0C
:100480000390887A0490C87A0590087B0690487B90
:100490000790887B08900020C97B01970991374914
:1004A0000C78AC425CD1012B51D04C78B44257D17E
:1004B000022B4CD08C78019FBC4251D1032B46D0EB
:1004C000CC7864454CD1042B41D00C79444547D1BC
:1004D000052B3CD04C794C4542D1062B37D08C793A
:1004E00054453DD1072B32D0CC795C4538D1082B0F
:1004F0002DD00C7A029FBC4232D1092B27D04C7AE6
:10050000039FBC422CD10A2B21D08C7A049FBC4281
:1005100026D10B2B1BD0CC7A059FBC4220D10C2BB3
:1005200015D00C7B069FBC421AD10D2B0FD04C7BF3
:10053000079FBC4214D10E2B09D08C7B089FBC4274
:100540000ED10F2B03D0CC7B099FBC4208D1C0B287
:1005500001210B4B18700B4B19700023136073E7CC
:100560000130103104289BD1002313606CE7002078
:10057000EEE7C046A8000020980000203847000899
:10058000AE000020AC000020054A1378002B04D0F8
:100590000449097801700021117018007047C046A5
:1005A000AC000020AE00002010B5024802F07AFD39
:1005B00010BDC046E0020020124B1A78824213D0D0
:1005C00001281AD0002810D0022812D0032802D106
:1005D0000D4A0E49116000220D4918700A700D492C
:1005E0000D4B0A6001321A707047074A0B491160BF
:1005F000F1E7054A0A491160EDE7034A094911602C
:10060000E9E7C046B400002000000020844700084D
:10061000B5000020B0000020040000209047000832
:100620008047000878470008154B70B5984200D005
:1006300070BD144B1B78002BFAD000F0D9FD124985
:100640000B689842F4DB114B114C1D682378EE5C6B
:10065000B2009219520010180860DA070BD49022E9
:100660000221D20591620133DBB22370EB5C002BD7
:10067000DED12370DCE790220221D2059161F2E7FE
:10068000E002002004000020B00000200000002054
:10069000B5000020F8B5134BCE46994647460023D7
:1006A0004A4680B5061E137011D0902502330024EF
:1006B00098460227ED059620AF6100F09FFD434666
:1006C0009620AB62013400F099FDB442F3DB642064
:1006D00000F094FD4A46012313700CBC90469946E5
:1006E000F8BDC0460400002070B590250023022606
:1006F000064CED0523700120AE6100F07FFDAE6277
:10070000142000F07BFD0123237070BD0400002045
:1007100010B500F03FFC00F0C5FC02E0642000F0E2
:100720006DFD00F059FC0028F8D1014B186010BD98
:10073000BC00002070B5C0B0002816D10C4B1D685D
:10074000002D10DD00240B4E2000694600F0F4FB64
:10075000012380225B42520069463000013402F0DE
:1007600087FDAC42F0DB40B070BD80256D02E9E74B
:10077000BC0000206C030020194BF0B5C64698461B
:10078000424600B5174BC0B04046802780245360D6
:10079000002603F033FA00F0B3FB7F026400F51982
:1007A0006D106946280000F0C7FB002302E001330A
:1007B000A34212D06A46D25CFF2AF8D06E1CB74220
:1007C000EDDC8022084B9200084940461F6002F091
:1007D000BDFE40B004BC9046F0BD2F00EFE7C04620
:1007E0006C03002060E31600BC000020E000002045
:1007F0000122014B1A707047C40000200222014BF5
:100800001A707047C400002070B500F0F1FC1F4A58
:1008100004001378DBB2002B09D11D4B1B68C41AEE
:1008200063230022E00FA3425041400070BD00212D
:10083000174E11703060012B0DD0022B02D1154BD9
:10084000154A1A60154D164A2B6893420BDD013389
:100850002B600220EAE70F4B124A104D1A602B68FA
:100860000F4A9342F3DC00F095FB8022094B5200C3
:100870001968286800F0DAFB00F0AEFB0028FBD115
:100880003368E41A2B6801332B60C9E7C4000020E9
:10089000C0000020B8000020E0010020BC000020C3
:1008A000FFFF0000E000002010B5054C200002F022
:1008B000B3FE044B2000636003F0A0F910BDC046F6
:1008C0006C03002020A10700044A054B1268012098
:1008D0009A4200DC0020C0B27047C046BC00002035
:1008E000FFFF0000144B30B51A689BB05401A41AE6
:1008F000A400A418E400E0170004000C0019001480
:100900000A21FFF779FD0D00A02120000903FFF760
:100910008DFC2B000200094901A803F0E9FA01A8A7
:10092000FFF7F2FB012382B25B4201A9044802F007
:100930009FFC1BB030BDC046BC000020944700089F
:100940006C03002010B5040000F052FC241805E0F0
:10095000FFF7CAFE00F04CFC844208D3902010211F
:10096000C00500F08FFE0028F2D0002010BD01204D
:10097000FCE7C04610B5040000F03AFC241803E080
:1009800000F036FC844207D390201021C00500F00F
:1009900079FE0028F4D110BD0120FCE730B599B0F4
:1009A0002C2200210DA803F09BFA1022002101A89F
:1009B00003F096FA1822002105A803F091FA80238B
:1009C0005B0215938023012502245B030BA814947A
:1009D00016930B950C9500F061FE072302940024FA
:1009E000012101A801930394049401F0FBF805A8E8
:1009F0000595079401F022FA19B030BDF0B58BB01F
:100A000000F0DAFBFFF7CAFF1422002105A803F06B
:100A100067FA80217B4DC9036A6990200A436A61A5
:100A20006B69C0050B4080210293029B6A698902B1
:100A30000A436A616B6900240B4080210393039B86
:100A40006A69C9020A436A616B6900220B40049318
:100A50000221049B00F01CFE902001220821C00509
:100A600000F016FE90200A23012605A9C005059373
:100A700006960794089400F02FFD9020102705A9F2
:100A8000C00505970694079400F026FD6B690022C7
:100A900033436B616B6900211E4005960A20059B5C
:100AA00000F0BEFB0A2000F0E7FB002200210B2033
:100AB00000F0B6FB0B2000F0DFFB5348534B846083
:100AC000036082235B004360E023DB00C36080237C
:100AD0009B008361FA3BFF3BC362013304614461C5
:100AE000C7610462446284620463436301F016FCDC
:100AF0004748484B84600360474BC46043600C2305
:100B0000046143618461C4610462446203F076F865
:100B10004248434B8460036030234360414B04618F
:100B2000C3604461846102F041FAFFF725FEFFF7DC
:100B30003BFD0020FFF740FD08E00320FFF73CFDF0
:100B4000FA208000FFF7FEFE00280FD1FFF75CFEC1
:100B50000400FFF7B9FE0028EFD12000FFF72CFDBD
:100B6000FA208000FFF7EEFE0028EFD0FFF79CFE92
:100B70000120FFF721FD0320FFF78CFDC820FFF7C0
:100B8000F9FE0028FAD0FFF73DFC6B46DC1D04E0BF
:100B90002548FFF7D7FE00281AD12000FFF7F4FC04
:100BA0000028F5D00220FFF707FD2378012B1DD088
:100BB000002B23D0022B1DD0032B01D1FFF7A8FD62
:100BC0000120FFF7F9FC1848FFF7BCFE0028E4D02D
:100BD0000220FFF7F1FCFFF79BFDBFF34F8F134B94
:100BE000134ADA60BFF34F8FC046FDE70020FFF7DE
:100BF000A1FDE5E70120FFF79DFDE1E7FFF772FEAC
:100C0000DEE7C04600100240F00300200030014043
:100C10006C0300200038014060E31600E002002071
:100C20000048014010270000B80B000000ED00E074
:100C30000400FA057047C04601220A4B82B0996948
:100C40001143996199690A4080210092009ADA69FA
:100C500049050A43DA61DB690B400193019B02B04D
:100C60007047C0460010024030B5040089B014221D
:100C7000002103A803F034F9284B22689A4201D0DE
:100C800009B030BD8020264B40019969014399612C
:100C900080219A69890202400192019A5A69902042
:100CA0000A435A615B69C0050B400293029BE02333
:100CB0000393DE3B049303A90133069300F00CFC7D
:100CC000184D194B80222B6010236B6000232800E5
:100CD000AB60EA602B616B61AB61EB6100F0F4FA31
:100CE000002815D1114B65656C62114D80222B6077
:100CF000002328006B60AB60EA602B616B61AB6125
:100D0000EB6100F0E1FA002805D1A5656C62B7E758
:100D1000FFF790FFE6E7FFF78DFFF6E700300140B1
:100D20000010024098040020300002401C000240E5
:100D30005404002000B50D4B026883B09A4201D0E4
:100D400003B000BD80200A4AC0029169014391614D
:100D5000936903210340019300221620019B00F0B8
:100D60005FFA162000F088FAEAE7C0460048014022
:100D70000010024030B5040089B01422002103A8FD
:100D800003F0AEF8244B22689A4201D009B030BD7E
:100D90008020224BC00199690143996180219A69A1
:100DA000C90202400192019A5A691D480A435A61D8
:100DB0005B690B400293029BC0230393BE3B0493E9
:100DC00003A90133069300F087FB164D164B8022D2
:100DD0002B600023EA602800603A6B60AB602B61F7
:100DE0006B61AA61EB6100F06FFA002810D18023DB
:100DF0000E4ADB0011681B200B431360002125679E
:100E000000226C6200F00CFA1B2000F035FABDE7FE
:100E1000FFF710FFEBE7C04600380140001002402A
:100E20000004004828030020580002400000014050
:100E30007047C046FEE7C0467047C0467047C04690
:100E400010B500F0C9F910BD10B5034800F0F4FA70
:100E5000024800F0F1FA10BD54040020980400206C
:100E600010B5024800F0E8FA10BDC0462803002083
:100E700010B5024802F04CF910BDC046E002002057
:100E8000074B10B51B78002B03D1064802F050FC2D
:100E900010BD054B988CC0B2FFF7C4FAF8E7C04606
:100EA000940000206C030020003801400B4A10B56C
:100EB0001368002B06D069461818884208D81060BD
:100EC000180010BD6946064B181813608842F6D901
:100ED00002F0DCFF0C2303600D3BF1E7C8000020AB
:100EE000E80400207047C0460122014B1A70704789
:100EF000CC0000200122014B1A707047CC0000206A
:100F0000012310B500240A4982B05B42012209483E
:100F10000C7001F0A3FA0194019B632B06DCC04620
:100F2000019B01330193019B632BF8DD02B010BDDF
:100F3000D4000020F0030020032370B50D001249F7
:100F400000020B70030C4B700023CB70902308221F
:100F5000000ADB0588709A6201230C4C5B42043A5C
:100F6000200001F07BFA802229005200200001F0CD
:100F70005BFD074A1378002BFCD0002313709023ED
:100F80000822DB059A6170BDD4000020F003002028
:100F9000CC00002030B59024062308250C49E40538
:100FA00083B00B700122073BA5620A4801F056FA94
:100FB0000023A5610193019B632B06DCC046019BC6
:100FC00001330193019B632BF8DD03B030BDC046B4
:100FD000D4000020F003002070B5052390250826DA
:100FE0000F49104C84B00B70ED05063BAE62220039
:100FF00000930D48033301F02BFB0023AE610393F4
:10100000039B632B06DCC046039B01330393039BC6
:10101000632BF8DD01206378184004B070BDC04632
:10102000D4000020D0000020F0030020022370B57F
:101030000D00194900020B70030C4B700023CB709C
:10104000902316000822000ADB0588709A620123AB
:10105000124C82B05B42043A200001F0FFF93200EA
:101060002900200001F056FC0D4A1378002BFCD01B
:101070000023137090220821D20591610193019BF6
:10108000632B06DCC046019B01330193019B632B5C
:10109000F8DD02B070BDC046D4000020F00300208F
:1010A000CC00002030B59024C72308250C49E40566
:1010B00083B00B700122C83BA5620A4801F0CEF94B
:1010C0000023A5610193019B632B06DCC046019BB5
:1010D00001330193019B632BF8DD03B030BDC046A3
:1010E000D4000020F003002013488546134801680F
:1010F000090E134A914205D1124813490160134861
:101100001349016013481449144A002302E0D458DB
:10111000C4500433C4188C42F9D3114A114C002333
:1011200001E013600432A242FBD3FFF7DBFE02F0C2
:10113000B3FEFFF763FCFEE7001800200400000088
:101140001F000000181002400100000000000140D4
:10115000000000000000002078000020084800087F
:1011600078000020E4040020FEE7000010B5040031
:10117000FA200E4B80001978FEF7CEFF0C4B0100D1
:101180001868FEF7C9FF00F083F80123002801D199
:10119000032C01D9180010BD00222100013800F0F5
:1011A0003FF8044B1C600023F4E7C0460C0000200D
:1011B00008000020100000201021064A10B5136816
:1011C00000200B431360FFF7D1FFFFF735FD002030
:1011D00010BDC04600200240034A044B11681B7832
:1011E0005B1813607047C046DC0400200C00002030
:1011F000014B18687047C046DC04002070B504003D
:10120000FFF7F6FF0500631C02D0044B1B78E418BF
:10121000FFF7EEFF401BA042FAD370BD0C00002088
:10122000FF22032330B51400C5B22B40DB009C40E5
:1012300089010A40E4439A4000280BDB0C4B8008EC
:101240009C46C023800060449B00C1580C40224350
:10125000C25030BD0F2307492B408C46083B9B08EA
:101260009B006344D9690C402243DA61F1E7C04630
:1012700000E100E000ED00E0002805DB1F2318403E
:101280001E3B8340014A13607047C04600E100E006
:101290000A4A431E012093420ED8C021084A094839
:1012A0005360036A09061B021B0A0B4303620023F7
:1012B00000209360073313607047C046FFFFFF00B4
:1012C00010E000E000ED00E070B5041E27D02125FD
:1012D000022343550068134A0368A1681A406368F3
:1012E0000B43E1680B4321690B4361690B43A1691F
:1012F0000B43E1690B43134303600B4B14219C46E2
:101300006044FEF709FF094B0122E36300238000DC
:1013100020640020A36362551F32A35470BD0120D6
:10132000FCE7C0460FC0FFFFF8FFFDBF0000024012
:10133000F0B52025445D012C29D0012421264455F7
:10134000845DE4B2012C1ED11E3D855500258563C8
:101350000568076C2E68A643BC402E60C66B74609F
:101360006B604368102B14D0C36AA960EA60002B3D
:1013700014D00E222B6813432B60012200202B680F
:1013800013432B60F0BD002343550220FAE70220EF
:10139000F8E7C36AAA60E960002BEAD10A222B6849
:1013A00013432B602B68063A93432B60E5E7C04656
:1013B000212330B5C25C022A06D000221D3B836384
:1013C0001C33C254012030BD0E240268056C116824
:1013D000A1431160012114688C4314600C00AC40DF
:1013E000C26B5460C15400222023C2540020EAE79B
:1013F000212370B5C25C022A03D01D3B8363012008
:1014000070BD0E240268056C1168A14311600121B2
:1014100014688C4314600C00AC40C26B5460C1541F
:1014200000222023C254436B002B02D09847002097
:10143000E6E70020E4E7C046F8B504242600036C84
:10144000C56B9E402A6801680F6832420DD03C424D
:101450000BD00B689B0602D40B68A3430B60C36AD6
:101460006E60002B00D09847F8BD022426009E40F5
:10147000324214D03C4212D00B689B0606D40A229A
:101480000B6893430B602123093AC25420230022A6
:101490006E60C254836A002BE6D09847E4E70824C4
:1014A00026009E403242DFD03C42DDD00A6806343E
:1014B000A2430A60012211009940212369608263DE
:1014C000C2540022013BC254036B002BCCD098477E
:1014D000CAE7C046806B7047F0B55746DE464E46B9
:1014E0004546E0B50B6885B08A46002B70D0604A4F
:1014F000002401925F4A9C46914601256346A5401F
:101500002B40984660D053465A681023170061005C
:101510009F430D3B8B40DB439B4653469E680097A1
:10152000013F8E40012F5AD95B46C5681D402E43AE
:10153000C6605B4605682B40032515408D402B4354
:10154000036080235B051A423ED00121019D0F26D6
:10155000AB690B43AB61AB6903250B4046492540A2
:101560008B46AD00AE400393039BA3089B005B44F6
:101570009968B1439026F605B04209D03F4EB0427B
:1015800000D171E03E4EB0426AD00526AE403143F4
:1015900099604B4641461B68CD43D10347D4494629
:1015A0002B400B604968930348D44B46294059604F
:1015B0009968D30249D44B4629409960DB6892026E
:1015C0004AD42B404A46D36063460134E34094D169
:1015D00005B03CBC90469946A246AB46F0BD5B4682
:1015E00087681F405346DB688B401F430123876099
:1015F0004768AF4315091D40A5405B463D43456024
:10160000C5681D40009B2E43C660022B91D1072662
:101610002640B6000D33B340E508AD0045192F6AEA
:101620009F4353461B69B3401F432F6281E74146E6
:101630000B4349460B6049689303B6D543461943AB
:101640004B4659609968D302B5D5434619434B467A
:101650009960DB689202B4D542461A431300B1E7A1
:101660000226AE40314393E70126AE4031438FE777
:101670000010024000040140000001400004004846
:101680000008004800690840411E8841C0B2704708
:10169000002A01D1816270478161FCE7F0B5CE4636
:1016A000474680B5040083B0002800D1F6E0036807
:1016B000DA0735D50C21C04842680A40042A00D117
:1016C0005EE142681140082900D150E16368012BB6
:1016D0000FD0002B00D17DE1052B00D1EDE1B64B01
:1016E000B6491A680A401A601A68B5490A401A6071
:1016F00005E08023B04A5B0211680B431360FFF7DB
:1017000077FD80250700AC4EAD0205E0FFF770FDC8
:10171000C01B642800D94DE133682B42F6D0236802
:101720009A0744D41A0717D5E369A34D002B00D1BB
:10173000D3E001226B6A022613436B62FFF758FD68
:10174000070005E0FFF754FDC01B022800D931E176
:101750006B6A1E42F6D023685A0771D58022964BD9
:101760005205D9690025114207D1D96901351143C4
:10177000D961DB691A400192019B8026914F760066
:101780003B68334200D105E1A368012B3AD0002B1E
:1017900000D138E1052B00D1D3E10121864B1A6A33
:1017A0008A431A621A6A03318A431A622EE00C22B3
:1017B00081494868024200D17FE048680240082A17
:1017C00000D171E0E368002B00D136E101227A4FAD
:1017D00002253B6813433B60FFF70AFD060005E066
:1017E000FFF706FD801B022800D9E3E03B681D429D
:1017F000F6D0F8213A6823698A43DB0013433B6043
:1018000023688FE76C490A6A13430B62FFF7F0FC09
:101810006D4B8146684F0226984606E0FFF7E8FCCC
:101820004B46C01A404500D9C4E03B6A1E42F5D081
:10183000012D04D1604A6549D3690B40D361236807
:10184000DA0612D56269012A00D19FE1053200D083
:1018500007E10420F82558494A6B82434A63486BE4
:10186000A269A843D20002434A639B065ED50C22BC
:1018700051494B6813400C2B09D04B681A40082A79
:101880003ED1C0224B6852021340934238D14A4B9A
:101890005B6BDB034AD5236A012B47D0012003B0E1
:1018A0000CBC90469946F0BD4A68C02149020A40E6
:1018B000802109028A4200D084E73F4A12689207D9
:1018C00002D5E268012AE9D1F8253B48226901687E
:1018D000D200A9430A43026024E701226B6A022670
:1018E00093436B62FFF784FC070004E0FFF780FC82
:1018F000C01B02285ED86B6A1E42F7D123682BE713
:10190000236A2D4D002B00D1C3E080266B6B76023D
:1019100033436B63FFF76CFC070004E0FFF768FCE0
:10192000C01B022846D86B6B3342F7D0636A002B8A
:101930001BD00C22204D69680A40082A00D10AE118
:10194000022B00D1C5E02B68214A802413402B6074
:10195000FFF74EFCA404060004E0FFF749FC801BDF
:10196000022827D82B682342F7D1002097E7C0210F
:10197000426849020A40802149028A4200D0A5E615
:101980000D4A1268920300D4CAE66268002A00D0A9
:10199000C6E683E73B6833433B60FFF729FC80469C
:1019A0003B68334200D0EFE6FFF722FC4346C01A03
:1019B0006428F5D9032072E700100240FFFFFEFF04
:1019C000FFFFFBFF0070004088130000FFFFFFEFE8
:1019D000FFFFFFFE7D4D7E4A2B68802613402B6063
:1019E0002B687C4AB60213402B60FFF701FC07000E
:1019F00004E0FFF7FDFBC01B6428DBD82B683342F3
:101A0000F7D123688CE60122704E0227336A934394
:101A10003362336A033293433362FFF7E9FB6E4B61
:101A20008146984605E0FFF7E3FB4B46C01A404568
:101A3000C0D8336A1F42F6D1FAE60122634D02266E
:101A40002B6893432B60FFF7D3FB070004E0FFF7FD
:101A5000CFFBC01B0228ADD82B681E42F7D12368EC
:101A600060E60422594D02266B6B13436B636B6B6C
:101A7000033A93436B63FFF7BBFB070004E0FFF7F8
:101A8000B7FBC01B022895D86B6B1E42F7D12368A9
:101A9000EBE66B6B4E4A802613406B63FFF7A8FBA7
:101AA0007602070005E0FFF7A3FBC01B022800D960
:101AB00080E76B6B3342F6D138E78022434BD2028A
:101AC00019680A431A608022196852020A431A6090
:101AD00015E62B68414A802613402B60FFF788FBF0
:101AE000B604070005E0FFF783FBC01B022800D9FE
:101AF00060E72B683342F6D10F22EB6A9343226BE7
:101B00001343EB62A16AE36A6A680B433449802499
:101B10000A4013436B6080232A685B0413432B60E5
:101B2000FFF766FB294D0600A40405E0FFF760FB04
:101B3000801B022800D93DE72B682342F6D0002005
:101B4000ADE60421214B1A6A0A431A621A6A033964
:101B50000A431A625AE6012B00D19FE6C0226B6845
:101B6000A06A5202E96A1A40824200D096E60F2229
:101B70000A40216B8A4200D090E6F02080030340A7
:101B8000E06A181A431E9841C0B288E604210F4D3E
:101B900002266B6B0B436B636B6B1A436A63FFF735
:101BA00027FB070005E0FFF723FBC01B022800D935
:101BB00000E76B6B1E42F6D0F8216A6BA3698A437B
:101BC000DB0013436B6323684FE6C04600100240FE
:101BD000FFFFFEFFFFFFFBFF88130000FFFFFFFE7C
:101BE000FF7FC2FFF0B5CE46474680B5040089B0FE
:101BF0000D0000280DD001235B490A681A40AA4253
:101C00000DD20A689A432A430A600A681340AB421D
:101C100005D0012009B00CBC90469946F0BD236860
:101C20009A070ED55A0705D5E0225049D2004868D8
:101C300002434A60F0204D494A688243A06802434B
:101C40004A60DB0724D56368484A012B62D0022B27
:101C50007BD0032B00D181E012689207D9D50321F4
:101C6000424E0C2772688A4313437360FFF7C0FA31
:101C70003F4B8146984605E0FFF7BAFA4B46C01A3B
:101C8000404560D8726863683A409B009A42F3D13D
:101C90000121354A13680B40AB4205D913688B43C9
:101CA000136013681942B4D123685B0706D52F4A25
:101CB000304953680B40E1680B43536069462E4B33
:101CC0000A00180070C870C200681033106004AABF
:101CD000100070CB70C01B68244D03600C206B6833
:101CE000184008281AD00C3843425841234B404230
:101CF0001840234B9C4660441C4B224A5B681B06E1
:101D00001B0FD35CD840204B18600020FFF72EFA41
:101D100000207FE712689203A1D47AE70F209C0C81
:101D200004400C5DE96A0840115CC0228020520228
:101D300013404002834201D093420AD01048FEF77C
:101D4000EBF96043D8E7032064E71268920186D478
:101D50005FE70E48FEF7E0F96043CDE7526BD20330
:101D600000D57CE755E7C046002002400010024045
:101D700088130000FFF8FFFF18470008005A6202AE
:101D800000127A00B047000808000020006CDC0256
:101D900070B588B069461C4B0A00180070C870C244
:101DA00000681033106004AA100070CB70C01B686C
:101DB000164D03600C206B68184008280AD00C38B8
:101DC00043425841124B40421840124B9C466044DB
:101DD00008B070BD0F209C0C04400C5DE96A0840FF
:101DE000115CC0228020520213404002834201D085
:101DF000934204D00748FEF78FF96043E8E70648AE
:101E0000FEF78AF96043E3E7184700080010024034
:101E1000005A620200127A00006CDC02044B054A90
:101E20005B685B055B0FD35C034A1068D840704762
:101E300000100240C047000808000020F0B5CE4660
:101E4000474680B5036883B00400DA0336D58022A4
:101E5000454B5205D9690027114207D1D96901378D
:101E60001143D961DB691A400192019B80263F4DE5
:101E700076002B6833424BD0C0213B4D89002A6A43
:101E800060680A4011D0014091420ED08022296A38
:101E90002E6A520232432A622A6A354B354E0B4073
:101EA00032402A622B62CB074BD42F4A3049136A47
:101EB0000B4003431362012F3BD02368DA0706D59A
:101EC000032029490A6B8243A06802430A639A06E9
:101ED00006D5102024490A6B8243E06802430A6356
:101EE0009A0306D5802020490A6B82436069024329
:101EF0000A6300205B0506D540211B4A136B8B4308
:101F000021690B43136303B00CBC90469946F0BDA6
:101F10002B6833432B60FFF76BF9804605E0FFF732
:101F200067F94346C01A642809D82B683342F6D0B3
:101F3000A2E7D36910490B40D3612368BEE70320B1
:101F4000E1E7FFF755F90D4B80460226994605E07B
:101F5000FFF74EF94346C01A4845F0D82B6A1E4297
:101F6000F6D06068A1E7C046001002400070004053
:101F7000FFFCFFFFFFFFFEFFFFFFFFEF88130000E6
:101F8000F0B5C64600B5140082B00D000600FFF79C
:101F90002FF96419241AFFF72BF92E4B07001A6842
:101FA00093009A18D3009B1A1B0D63430193C0231F
:101FB000DB00984633686A1C0BD1C021C90000E0E1
:101FC0001A7B9A680A42FBD1002002B004BC9046FA
:101FD000F0BD41469A680A42F6D01B7BFFF708F92C
:101FE000C01BA04208D2019B5A1E93415B421C4079
:101FF000019B013B0193DDE7E02133685A688A4386
:102000005A60822271685200914214D08021B26AD3
:1020100089018A4207D05D230122F2540022013B4C
:10202000F2540320D1E719680B4801401960196880
:102030000A431A60EFE78021B26809028A4203D09E
:102040008021C9008A42E1D140211A688A431A607E
:10205000DCE7C04608000020FFDFFFFFF0B5DE46EA
:1020600057464E464546E0B50E009146B04683B011
:10207000C8440400FFF7BCF843461D1AFFF7B8F840
:10208000454F83463A6893009A18D3009B1A1B0D5C
:102090006B430093C0235B019A462268731C26D1D0
:1020A000C021490193680B42FCD1FFF7A1F84346D8
:1020B0001D1AFFF79DF83B68804680275B011B0DCA
:1020C0006B4301932268731C46D1802193681942A7
:1020D000FCD14A4631002000FFF752FF002835D1DD
:1020E00003B03CBC90469946A246AB46F0BD93680F
:1020F00052461342D9D0FFF77BF85B46C01AA8427C
:1021000008D2009B5A1E93415B421D40009B013B3D
:102110000093C2E7E02123685A688A435A6082220A
:1021200061685200914229D08021A26A89018A42C5
:1021300006D1196819480140196019680A431A60E4
:102140005D230122E2540022013BE2542022236E4F
:10215000032013432366C3E793681F42B9D0FFF7F8
:1021600047F84346C01AA842D4D2019B5A1E934155
:102170005B421D40019B013B0193A3E78021A268C4
:1021800009028A4203D08021C9008A42CCD1402171
:102190001A688A431A60C7E708000020FFDFFFFFC4
:1021A000F0B5CE46474680B585B00C000500FFF778
:1021B0001FF864239846A0444346C0261C1AFFF724
:1021C00017F8544B76011A68994693009A18D30071
:1021D0009B1A1B0D634301932B6807009B683342D6
:1021E0000CD136E0019B5A1E93415B421C40019B7F
:1021F000013B01932B689B6833422AD0FEF7F8FF1E
:10220000C01BA042EED3E0212B685A688A435A6073
:1022100082226968520091426AD08021AA6A8901AB
:102220008A4206D119683C480140196019680A437E
:102230001A605D230122EA5400220320013BEA5484
:102240002B6E203213432B6605B00CBC904699468A
:10225000F0BDFEF7CDFF43461C1AFEF7C9FF4B4603
:102260001B6806005B011B0D634302932B689B6890
:102270001B0613D580270BE0029B5A1E93415B423D
:102280001C40029B013B02932B689B681F4205D0B8
:10229000FEF7AEFF801BA042EED3B4E7FEF7A8FF27
:1022A00043461C1AFEF7A4FF4B46C0271A68FF00DE
:1022B00093009A18D3009B1A1B0D634303932B685A
:1022C00006009A683A420CD121E0039B5A1E9341C2
:1022D0005B421C40039B013B03932B689A683A4284
:1022E00015D01B7BFEF784FF801BA042EDD38AE74D
:1022F0008021AA6809028A4204D08021C9008A424A
:1023000000D08AE740211A688A431A6085E70020D6
:102310009AE7C04608000020FFDFFFFFF0B5D64671
:102320004F4646460400C0B5002800D185E0456A06
:10233000002D65D00023036143610023A3625D3358
:10234000E35CDBB2002B68D05D2302224021E25423
:102350002268E06813688B431360E023DB00984237
:1023600062D9F0231B01984200D071E08023A16A5A
:102370009B01194000238C469A46822366685B00C5
:1023800033408426A76836023E403343022627693D
:10239000A1693E40334301266769B14637403B435C
:1023A0008027BF000F403B433827E669090C3740C0
:1023B00080263B433700266A374066463B4333431B
:1023C00013600823666B57463340F02636013040D1
:1023D0001843042319400143102005400D432F43A7
:1023E0005760D3691C4900200B40D36100234A4643
:1023F00023665D33E2541CBC90469946A246F0BD6C
:10240000822342685B009A4297D00023C561A36291
:102410005D33E35CDBB2002B96D15C222000A35439
:10242000FEF722FC656A8FE7984208D080235B01A3
:102430009A460023A3629C469FE70120DBE78023A6
:10244000A16A9B01194080235B018C469A4694E760
:1024500000239A46EDE7C046FFF7FFFFF0B5C646FA
:102460001D005C2300B59046C25C82B004000F00E2
:10247000012A00D17AE00122C254FEF7B9FE5D23A1
:10248000E25C06000220012A09D05D230122E25409
:102490000022013BE25402B004BC9046F0BD002F84
:1024A00066D042460138002AEFD00322E2540023CE
:1024B00042462366A287E28744222364A763A3528D
:1024C0000232A3528022A1682365E36412022368CA
:1024D000914208D140211A688A431A608022196803
:1024E000D2010A431A60402219680A4202D11968CF
:1024F0000A431A60E022E0686168D200904239D94C
:10250000002900D199E04246012A00D195E0022736
:102510006B1C71D1E38F002B10D0226893681F428F
:1025200000D17DE0A36B19880233D160A363E38FF0
:10253000013B9BB2E387E38F002BEED132002900F1
:102540002000FFF78BFD002801D020232366A3681D
:10255000002B06D101932368DA6801929B680193EE
:10256000019B206E431E9841C0B28EE7022092E785
:1025700001208AE7002956D04246012A53D002277B
:102580006B1C1FD1E38F002BD8D023689A681742A9
:1025900010D0A26B12781A73A36B0133A363E38F7D
:1025A000013B9BB2E387E38F002BC7D023689A6877
:1025B0001742EED1FEF71CFEE4E7FEF719FE801B82
:1025C000A84243D2E38F002BB8D023689A68174201
:1025D000F3D0A26B12781A73A36B0133A363E38F5A
:1025E000013B9BB2E387E38F002BEED1A6E7FEF71A
:1025F000FFFD801BA84229D2E38F002B9ED02268CA
:1026000093681F42F3D0A36B19880233D160A36390
:10261000E38F013B9BB2E387E38F002BEFD18DE784
:10262000FEF7E6FD76E73A781A73A36B0133A363EE
:10263000E38F013B9BB2E387A1E73A880237DA6078
:10264000E38FA763013B9BB2E38760E703201CE7AE
:10265000F0B5C6461E005C2300B51700C25C04003E
:102660000D00012A00D18BE00122C254FEF7C0FD0B
:102670005D23E35C8046DBB26268012B12D08221CD
:10268000022049008A4208D05D230122E254002240
:10269000013BE25404BC9046F0BDA1680029F3D18F
:1026A000042BF1D10120002DEED0002FECD0002E14
:1026B000EAD05D23E15C042901D00521E154002327
:1026C000462123662764665202396652E021E0689B
:1026D000E3642365A563E687A6872368C90088426B
:1026E00050D959688A480140402059601968084209
:1026F00002D1196801431960002A00D1F0E0012ECF
:1027000000D1EDE0069B012746250226013325D0A6
:10271000B3E023689A6816420ED0E28F002A0BD0ED
:10272000012F09D10027A26B11880232D960A26360
:10273000E28F013A92B2E2879A68D2070CD5625BC7
:10274000002A09D00127DA68236C1A800233236437
:10275000635B013B9BB26353FEF74AFDE38F002BA3
:10276000D7D1635B002BD4D1424606992000FFF7F6
:1027700075FC002800D187E720230120236683E72A
:10278000022087E7802158684901014359604021B0
:102790001868014200D1B6E0002A00D1A9E0012E5C
:1027A00000D1A6E0069B012746250226013328D04A
:1027B0002EE023689A68164210D0E28F002A0DD0CE
:1027C000012F0BD10027A26B12781A73A36B013370
:1027D000A363E38F013B9BB2E38723689A68D20728
:1027E0000DD5625B002A0AD001271B7B226C137077
:1027F000236C01332364635B013B9BB26353FEF79D
:10280000F7FCE38F002BD4D1635B002BD1D1ABE776
:10281000E38F002B02D1635B002BA5D023689A685D
:10282000164210D0E28F002A0DD0012F0BD10027C5
:10283000A26B12781A73A36B0133A363E38F013B7E
:102840009BB2E38723689A68D2070DD5625B002AA2
:102850000AD001271B7B226C1370236C0133236485
:10286000635B013B9BB26353FEF7C2FC4346C01A55
:10287000069B8342CCD8032006E7E38F002B03D1CD
:10288000635B002B00D16FE723689A6816420ED075
:10289000E28F002A0BD0012F09D10027A26B1188EB
:1028A0000232D960A263E28F013A92B2E2879A685B
:1028B000D2070CD5625B002A09D00127DA68236CA5
:1028C0001A8002332364635B013B9BB26353FEF7C0
:1028D0008FFC4346C01A069B8342CED80320D3E622
:1028E0002A880235DA60E38FA563013B9BB2E38758
:1028F00008E72A781A73A36B0133A363E38F013BC4
:102900009BB2E3874EE718680143196044E7C0466D
:10291000FFEFFFFF5C2370B50400C05C012866D0A8
:102920000120E0540133E55C0130012D03D05C232C
:102930000022E25470BD002957D00138002AF6D099
:102940000230E0540023A2872366E28744222364F6
:102950002365E364A163A3520232A3528023A068DB
:1029600022681B02984208D14020136883431360F9
:1029700080231068DB0103431360606D264B274DF5
:10298000C362274BE6688362264B036300234363DD
:1029900053682B405360E023DB009E420DD8802318
:1029A0004669DB009E4208D1E38FDB072AD45368D7
:1029B0001D405560E38F5B08E387E38F0C329BB2C9
:1029C000FEF7B6FC002814D14022236819680A4299
:1029D00002D119680A431A6020215A680A435A60D2
:1029E0005A681E390A435A60A1E701209FE7022076
:1029F000A0E71022236E0120134323665D230F3AC4
:102A0000E25494E780235568DB012B435360E38F46
:102A10005B080133E387D0E7092D0008FFBFFFFF04
:102A20005D2D0008392D0008F8B5040083685C208E
:102A3000255C002B04D1822667687600B74261D0FE
:102A4000012D00D1B4E05C20012525545C35665D84
:102A50005A38012E03D05C230022E254F8BD00292D
:102A600000D1A3E00138002AF5D0033060550020E2
:102A7000193D20662164625302356253E06420658B
:102A8000A087E087802022680002834207D140208F
:102A900013688343136013689048034013605368BE
:102AA0008F4DE6682B405360E023A06DDB009E4213
:102AB00000D87FE053688B4D2B4053608A4B0C321B
:102AC000C3628A4B15008362894B0A0003630023AB
:102AD00043634633E35A29009BB2FEF729FC0028E2
:102AE0005BD14022236819680A4202D119680A435F
:102AF0001A6020215A680A435A605A681F390A43EB
:102B00005A60A8E7013E5D33FF3EE654012D4FD0E9
:102B100001252554E35CDBB2012B02D00220042BFB
:102B200099D10120002996D0002A00D193E75D2396
:102B3000E05C042801D00520E0540023A163216457
:102B400044212366A287E2876252023162522168E1
:102B5000E364236567484B68E56803404B60E02306
:102B6000A06DDB009D4249D94B685E4A13404B6023
:102B70005D23E35C042B61D05F4BC3625F4B8362D8
:102B80005B4B0C310363002343634633E35A226CEF
:102B90009BB2FEF7CDFB002855D01022236E0120FA
:102BA000134323665D230F3AE25454E7012052E7B2
:102BB000022053E7802356685B0133435360802330
:102BC0004669DB009E4200D078E75368454E3340AB
:102BD00053604623E65AF60706D4566835405560DA
:102BE000E55A6D08E55269E780255668AD01354321
:102BF0005560E55A6D080135E5525FE780234D6861
:102C00005B012B434B608023656DDB006D699D424A
:102C100034D080234269DB009A42A9D14B68314A03
:102C200013404B604623E25AD20742D44A682C4DE7
:102C30002A404A60E25A5208E25299E72A4BC3629C
:102C40002A4B83629CE701262268656D5368A16B5D
:102C500033435360E862A86228636863E38F0C32F1
:102C60009BB22800FEF764FB002811D01022236ECF
:102C70000120134323665D23E654ECE6D30722D4F8
:102C80004B68164A13404B60E38F5B08E387C0E74D
:102C90004022236819680A4202D119680A431A605F
:102CA00020215A680A435A605A681E390A435A60FA
:102CB000D1E680224D6892012A434A60E25A5208C6
:102CC0000132E25254E780234A68DB0113434B6030
:102CD000E38F5B080133E3879BE7C046FFBFFFFF3D
:102CE000FFDFFFFFFFEFFFFF192D0008CD2D0008CC
:102CF000392D0008FF9FFFFF292D0008512F0008E4
:102D00007047C0467047C04610B5406AFFF7FAFFEB
:102D100010BDC0467047C04610B5406AFFF7FAFFC5
:102D200010BDC0467047C04610B5406AFFF7FAFFB5
:102D300010BDC0467047C0460321406A10B5026806
:102D400053688B4353601022036E134303665D2365
:102D50000F3AC254FFF7EEFF10BDC04630B5050074
:102D600083B0446AFEF744FA2B6820251B681D4295
:102D700022D1022123685A68AA435A605A688A43BA
:102D80005A6001002000FFF70BFA002802D0236EE2
:102D90001D432566A368002B06D101932368DA68DA
:102DA00001929B680193019B00230122E3875D331D
:102DB000E254236E002B04D12000FEF795F803B0F7
:102DC00030BD2000FFF7B6FFF9E7C046F0B5C646B4
:102DD00000B5040082B0456AFEF70AFA2021236894
:102DE00080461B68194260D12B685A688A435A6032
:102DF000AA686968002A5FD001245868A043586017
:102E000082204000814200D17DE04446FEF7F0F987
:102E10006434241AFEF7ECF94B4B06001B685B0187
:102E20001B0D634301932B689B681B064DD58027C0
:102E30000BE0019B5A1E93415B421C40019B013BEE
:102E400001932B689B681F423FD0FEF7D1F9801B8E
:102E5000A042EED3E0212B685A688A435A6082224E
:102E60006968520091425CD08021AA6A89018A4235
:102E700006D1196835480140196019680A431A607B
:102E80005D230122EA540022013BEA542B6E2032DA
:102E900013432B6620232B6646230022EA52173366
:102EA0000132EA542B6E002B29D12800FEF722F8BC
:102EB00002B004BC9046F0BD0532FF3291422BD0E7
:102EC00001215A688A435A609FE782236A685B003F
:102ED0009A42E1D18022AB681202934203D0802251
:102EE000D2009342D8D1424664212800FFF748F827
:102EF0000028D1D020222B6E13432B66CAE728006E
:102F0000FFF718FFD4E7802109028A4217D1402138
:102F10001A688A431A6078E703215A688A435A601C
:102F200073E78021AA6809028A4203D08021C90080
:102F30008A4299D140211A688A431A6094E7802115
:102F4000C9008A42E3D060E708000020FFDFFFFFEE
:102F500070B50500446AFEF74BF92B6820251B6805
:102F60001D421BD12268010053682000AB4353600F
:102F7000FFF716F9002802D0236E1D4325660321B2
:102F8000226853688B43536000234622E387A35291
:102F90005D33453AE254236E002B03D12000FFF746
:102FA000AFFE70BD2000FFF7C5FEFAE770B5041E46
:102FB00056D03D23C35CDBB2002B21D03D2302223F
:102FC000324EE2542268A5691368E0686168B24233
:102FD00048D08026F605B24217D02D4EB24214D00A
:102FE0002C4EB2424DD02C4EB2423FD02B4EB2426C
:102FF0003CD08026B3432B431360D062916217E02C
:103000003C228354FDF796FED8E77026B343A668AA
:103010003343234E3340266933438026B3432B4347
:1030200013601E4BD06291629A4201D163691363AF
:103030000123536146220020A354083AA3540132CD
:10304000A3540132A3540132A3540132A3540132D8
:10305000A3540132A3540132A354083AA35470BDBF
:103060000120FCE77026B343A66833430C4E33407F
:10307000266933438026B3432B431360D0629162A9
:10308000D4E7074E334026693343B2E7002C0140B2
:10309000000400400020004000440140004801407E
:1030A000FFFCFFFF3D22815C0123012901D01800B4
:1030B0007047013181540268D1681943D1600E49CB
:1030C0008A420BD08021C9058A4207D00B498A4227
:1030D00004D01068034313600023E8E707239168D6
:1030E0000B40062B05D0012113680B43136000230E
:1030F000DDE70023DBE7C046002C01400004004070
:103100007047C0467047C0467047C0467047C046CB
:103110000222036810B5196904000A4202D0D96876
:103120000A4265D1042219690A4202D0D9680A42CA
:103130004BD1082219690A4202D0D9680A4233D118
:10314000102219690A4202D0D9680A421CD1012210
:1031500019690A4202D0D9680A425CD180221969F1
:103160000A4202D0D9680A425CD1402219690A4257
:1031700002D0D9680A425DD1202219690A4202D0E0
:10318000D9680A4241D110BD213A1A611932227719
:10319000DA69C0239B0020001A425ED0FFF7B2FF1D
:1031A000002323772368D2E7113A1A61DB690D32D5
:1031B000227720009B074DD1FFF7A2FF2000FFF7E9
:1031C000A3FF002323772368BAE7093A1A6107327D
:1031D00022779A69C0239B0020001A4237D1FFF75B
:1031E0008FFF2000FFF790FF002323772368A0E7DD
:1031F000053A1A619B69043202779B0721D0FFF7D9
:1032000081FF0023237723688CE7413A1A6120006D
:1032100000F02AF8B7E7033A1A612000FDF704FA34
:1032200023689BE7023AFF3A1A61200000F01EF87B
:1032300023689AE7813A1A612000FFF767FF236845
:103240009AE7FFF75DFF2000FFF75EFFD9E7FFF782
:1032500059FFC9E7FFF756FFB3E7FFF751FF20001B
:10326000FFF752FF9CE7C0467047C0467047C04614
:10327000F8B557464E464546DE46E0B51E00836F1C
:1032800005000F0014000220202B51D1002955D039
:103290000138002A4CD08023AA685B019A424FD0A3
:1032A0007423EA5C012A00D1A9E00122EA54002239
:1032B0000C33EA505F3BAB67FDF79AFF50230022C7
:1032C000EC520233EC5280239346AA6882465B019B
:1032D0009A4200D1A6E074230022EA54223BEB5A22
:1032E0002A68002B15D0802480231B019946731C6B
:1032F0002CD1D3691C42FCD0002F50D03B78013731
:10330000138552216B5A013B9BB26B526B5A002BB7
:10331000EAD10423984680231B0140279946731C59
:1033200046D14021D3691942FCD020230020AB674D
:103330003CBC90469946A246AB46F8BD0120F7E753
:103340002B69002BACD10142AAD0F1E7D36923400D
:103350009846D1D1FDF74CFF53462A68C01A8642E1
:103360004FD3002E4DD0042113681942BFD04946D7
:10337000D3690B42BBD0116213682E4903200B4066
:1033800013609368A331FF318B4393602023802225
:10339000AB67EB67AB5042465433EA54C8E75B4631
:1033A0001B88DB05DB0D138502239C46E344A8E75D
:1033B000D4693C40B9D1FDF71BFF53462A68C01AB7
:1033C00086421ED3002E1CD0414613681942A6D057
:1033D0004946D3690B42A2D01162136815490320F4
:1033E0000B4013609368A331FF318B43936020231C
:1033F0008022AB67EB67AB505433EC5498E7022064
:1034000096E713680B4903200B4013609368A331C0
:10341000FF318B43936020230022AB67EB6754336B
:10342000EA5485E72B69002B00D054E7BB46002700
:1034300051E7C0465FFEFFFF70B5C46F0300022076
:10344000202C49D1002948D00138002A44D08025B9
:103450009C686D01AC4242D074201D5C012D00D1EE
:103460006BE001251D5400201866186845682D0280
:1034700004D580250668ED0435430560596558215B
:103480005A5202315A52002280215A6649018C4216
:103490002BD0002C06D11A69002A43D1FF215C32BF
:1034A000995205E0802149058C423FD05C215A5257
:1034B0008022002199505E3ADA67826801310A431E
:1034C00082601F4A5A660021742299549023026830
:1034D0005B0013430360002070BD0120FCE71D6901
:1034E000002DB9D10142B7D0F6E7196900290CD1F6
:1034F0005C22144C9C522432995001215E3ADA67C6
:1035000082680A438260104ADCE75C21FF245C5237
:1035100024315A502222DA6782687F390A43826056
:10352000074ACFE75C227F219952C1E71A69002A36
:10353000F8D05C223F219952BAE70220CCE7C0467E
:10354000B1390008FF010000313A0008F8B5C56F35
:1035500004000220202D46D1002945D00138002A40
:1035600041D08023A5685B019D423FD07423E05C7D
:10357000012849D00120E0540023236623685868BD
:10358000000204D580201D68C0042843186058201C
:1035900080260025616522523638A551E067206FEC
:1035A000002810D0194F24338762194F4563C76232
:1035B000184F07631F0013000A003900FDF7B8FE1B
:1035C000002819D1236874220021A15419688C3273
:1035D0000A43012100201A609A680A439A609A6897
:1035E0003F310A439A60F8BD0120FCE72369002BB4
:1035F000BCD10142BAD0F6E71023A3516433E5549D
:10360000543BA3670120EEE70220ECE7C93A00082B
:10361000AD3A00089D36000803681D491A6810B5C8
:103620000A401A609A682331FF318A439A60026E19
:103630000400012A03D11A680F318A431A6040221C
:1036400099680A420CD09968206F914399600028CC
:1036500006D000234363FDF7ABFE00280ED123689C
:1036600000215A220820A1524B3A1A629A69024359
:103670009A6120230020E367216610BD206FFDF7CB
:1036800029FF2028EBD1802310220320E250F4E709
:10369000DFFEFFFF7047C0467047C046406A10B566
:1036A0000368846FC16F9A68120601D5212C21D05E
:1036B0009A68520601D5222907D08022102183580A
:1036C0000B438350FFF7E8FF10BD5A2200218152BF
:1036D0001A6810490A401A609A682331FF318A43F8
:1036E0009A60026E012A0FD02023C367002303666D
:1036F0004366E2E75222002484521A68C034A2438F
:103700001A6020228267D3E71A680F318A431A6051
:10371000EAE7C046DFFEFFFF00235A2210B5406AE9
:103720008352083A8352FFF7B7FF10BD7047C04677
:10373000F8B5CE46474603680400DA699748196829
:1037400080B59D68024200D171E00120284000D17F
:1037500078E00125154206D0CE0504D580271D62EC
:10376000E6593543E5510225154200D1CFE0002846
:1037700008D0802704261D62E5593543E5511642DD
:1037800000D0CAE0150705D58D0600D5CDE000288C
:1037900000D0CAE080200001024207D04D0105D5CB
:1037A00080252026186260593043605180202058BF
:1037B000002838D02020104202D0084200D0BFE0BC
:1037C000802561599A68520603D428260E4000D1FC
:1037D000BEE01A6872490A401A609A682331FF31C4
:1037E0008A439A60226E012A03D11A680F318A43F4
:1037F0001A602022E26700224021226662669A68EF
:10380000114200D198E09A68206F8A439A6000289C
:1038100000D191E0634B4363FDF7EAFD002802D03D
:10382000206F436B98470CBC90469946F8BD20200A
:1038300010420BD0084209D0636E002BF3D0200059
:103840009847F0E7584E314200D082E7266E012EAD
:1038500023D080204003024208D1802010420CD0A7
:1038600008420AD0A36E002BE9D1DCE76D02F4D543
:103870001862200000F008FBD5E740201042D2D0AB
:103880000842D0D01A6882431A602023A36700231D
:103890002000A366FFF7FEFEC5E710271742D8D029
:1038A0000F42D6D040211F629A680A4055D0206F3F
:1038B0000268526892B2002AB5D05825A846655BC6
:1038C000A9469542AFD95A2562538269202A15D05C
:1038D0001A68364D2A401A609A68B2439A609A680C
:1038E0008A439A602022E267002222661A68BA435D
:1038F0001A60FDF75DFD4346E35A99465A23E15AA3
:103900004B46591A89B22000FFF710FF8BE7550785
:1039100000D437E7002800D134E7042580260227A9
:103920001D62A5593D43A5512CE7082680251E623E
:103930006059304360512DE72000FFF7ADFE72E77C
:10394000626E002A00D13BE720009047236837E7EA
:103950002000FFF7A1FE665165E75A20215A205A40
:1039600089B2002800D15EE75820205A411A89B256
:10397000002900D157E71868094D28401860986859
:10398000B04398602020E067226662661A682000D3
:10399000BA431A60FFF7CAFE45E7C0460F080000A9
:1039A000DFFEFFFF1937000820010004FFFEFFFFC4
:1039B000C26F10B503680400222A04D008219A6956
:1039C0000A439A6110BD3A329B8C825A1340426D71
:1039D00013705A22436D01334365835A013B9BB2F6
:1039E0008352835A9BB2002BECD102680F481168B6
:1039F0000140116091682330FF30814391602021A4
:103A0000E1676366236E012B05D02000FCF7F6FE0C
:103A100000232366D6E7136810398B4313605823BD
:103A20002000E15AFFF782FEF2E7C046DFFEFFFF0B
:103A3000C26F10B503680400222A04D008219A69D5
:103A40000A439A6110BD5C21988C615A626D0140F5
:103A500011805A2102326265625A013A92B2625270
:103A6000625A92B2002AEDD119680F4801401960DC
:103A700099682330FF30814399602021E1676266B5
:103A8000226E012A05D02000FCF7B8FE0023236631
:103A9000D8E71A6810398A431A6058232000E15A7F
:103AA000FFF744FEF2E7C046DFFEFFFF406A10B5B5
:103AB000036E012B02D0FCF79BFE10BD5733C15A99
:103AC0004908FFF733FEF8E7826910B5436A202AF8
:103AD00015D05A22002199521A68134811680140E2
:103AE000116091680330FF308143916091683F30ED
:103AF000814391602021D967196E012906D01A6E81
:103B0000012A0AD01800FCF779FE10BD1168303880
:103B1000814311601A6E012AF4D15732995A180064
:103B2000FFF704FEF1E7C046FFFEFFFF436A30B532
:103B3000DA0706D50168284C4A682240846A224385
:103B40004A609A0706D50168244C4A682240C46A34
:103B500022434A605A0706D50168214C4A68224030
:103B6000046B22434A601A0706D501681D4C4A6857
:103B70002240446B22434A60DA0606D501681A4C9B
:103B80008A682240846B22438A609A0606D50168BF
:103B9000164C8A682240C46B22438A605A060AD5B2
:103BA0000168134D4A68046C2A4022434A6080220F
:103BB0005203944209D01B0606D502680D4953688A
:103BC0000B40816C0B43536030BD4A680A4C224065
:103BD000446C22434A60EEE7FFFFFDFFFFFFFEFF5C
:103BE000FFFFFBFFFF7FFFFFFFEFFFFFFFDFFFFF99
:103BF000FFFFEFFFFFFFF7FFFFFF9FFFF8B5CE4688
:103C00004746040080B5002836D0836F002B2ED0A5
:103C100024230121A367236820691A68E5698A4380
:103C20001A60A268196802436069024388482A43FF
:103C300001400A431A605A688649206A0A40E168CE
:103C40000A435A60A26999680243834801400A43C3
:103C50009A60824A934211D0814A934223D0002332
:103C600001206366A3660CBC90469946F8BD742299
:103C70008354FDF77FF8CBE70120F4E7794B8020F0
:103C80001A6B03231340784A0002D35C854200D1AB
:103C9000AEE0022B00D1D3E000D8D3E0042B44D017
:103CA000082B0AD0DBE780231B029D4200D1C4E031
:103CB000FEF7B4F8002800D187E0636861685B080C
:103CC0001818FCF729FA0004000C0200674B103AA0
:103CD0009A42C4D82368D86000236366A366636AE7
:103CE000002B50D1236862495A680A402A215A6041
:103CF0009A688A439A601A6829390A431A608023AD
:103D00000022E250FDF774FA236806001A681207D1
:103D10000ED41A6852073AD420237422A367E367AB
:103D2000002300202366A3549DE7FEF731F8C1E786
:103D3000504A8027904604229146BF03DD693D40EA
:103D4000E7D1FDF755FA2368801B1A68404540D833
:103D500049461142F2D08022D96912011142EDD0B8
:103D60001A621A68444903200A401A609A68A3310B
:103D7000FF318A439A6020238022A367E367A35020
:103D80005433E5546FE72000FFF7D0FEAAE7394A25
:103D90008027904604229146FF03DD693D40BBD158
:103DA000FDF726FA2368801B1A68404511D849465A
:103DB0001142F2D08022D96912011142EDD0CFE731
:103DC000FDF7E6FF420000281CD100236366A366CE
:103DD00085E7294903200A401A609A68A331FF3118
:103DE0008A439A602023A367E3675433E5543AE794
:103DF000022B2BD01ED9042BE2D080225202082B9A
:103E000000D02CE76368580819008018FCF784F983
:103E100003041A0C1549103A8A4200D91FE7174AC1
:103E20001B0310405B0F184300232268D0606366B9
:103E3000A36654E7002B00D011E7FDF7EFFFC1E7C1
:103E40000F483AE7002B00D132E708E70D4AD9E7DF
:103E5000F369FFEFFFCFFFFFFFF4FFFF00380140E2
:103E60000044004000100240C8470008EFFF000077
:103E7000FFB7FFFFFFFFFF015FFEFFFFF0FF000046
:103E800000127A000024F4007047C046014B186805
:103E90007047C0461400002070B500260C4D0D4C34
:103EA000641BA410A64209D1002600F029FC0A4D8B
:103EB0000A4C641BA410A64205D170BDB300EB5898
:103EC00098470136EEE7B300EB5898470136F2E722
:103ED000004800080048000800480008044800089E
:103EE00003001218934200D1704719700133F9E7AB
:103EF0000EB400B50B499CB01DAB02900690079123
:103F000004910948094904CB0591006802A901936D
:103F100000F070F80023029A13701CB008BC03B0C4
:103F20001847C046FFFFFF7F140000200802FFFF74
:103F3000F0B58E6885B007000C00039201939E4295
:103F40003CD890238A89DB001A4234D003250969C2
:103F500023685B1A0293636902985D43EB0F5D1956
:103F6000019B6D1001331B18AB4200D91D00530596
:103F700032D52900380000F023FB061E09D10C239E
:103F80003B6040230120A28940421343A38105B036
:103F9000F0BD029A216900F0ACFAA389144A1A40D4
:103FA00080231343A381029B2661F6182660656176
:103FB000019EED1AA560019B9E4200D9019E320030
:103FC0000399206800F09EFAA36800209B1BA36061
:103FD00023689E192660DAE72A00380000F04EFBBD
:103FE000061EE0D12169380000F0A0FAC7E7C046FC
:103FF0007FFBFFFFF0B5A1B003901D008B890F0080
:1040000016001B0611D50B69002B0ED1402100F0C4
:10401000D7FA38603861002805D10C23039A01389B
:10402000136021B0F0BD40237B61002308AC6361C5
:10403000203363761033A376079535002B78002B59
:1040400001D0252B46D1AB1B05930CD03200390093
:104050000398FFF76DFF431C00D1AEE06269059B3A
:104060009446634463612B78002B00D1A5E00122C4
:1040700000235242626004A9543252186E1C23601D
:10408000E360A3601370A36531780522534800F004
:1040900025FA751C00281FD12268D30604D55323A6
:1040A00004A95B1820211970130704D5532304A910
:1040B0005B182B21197033782A2B16D0350000217C
:1040C0000A20E3682A786E1C303A092A4ED9002962
:1040D00018D010E00135B1E7404B2268C01A012327
:1040E0008340134323602E00CEE7079B191D1B68F6
:1040F0000791002B01DB0B9304E05B42E36002239A
:10410000134323602B782E2B0AD16B782A2B35D1C1
:10411000079B02351A1D1B680792002B2BDB0993A6
:104120002F4E29780322300000F0D8F9002806D05D
:104130004023801B83402268013513432360297884
:10414000062228486E1C217600F0C8F900283CD0D1
:10415000254B002B25D10722079B073393430833B8
:1041600007936369049A9B18636166E743430121DF
:104170009B183500A6E701235B42D0E700230A2005
:104180001A000135636029786E1C3039092903D97A
:10419000002BC5D00992C3E74243012352183500D2
:1041A000F1E707AB00933A00104B2100039800E0C1
:1041B00000BF0490049B0133D3D1BB890D985B06EB
:1041C00000D42EE7012040422BE707AB00933A00D2
:1041D000064B2100039800F079F8EAE7CC47000885
:1041E000D2470008D647000800000000313F000811
:1041F000F7B5150001938A680B6900900C00934293
:1042000000DA130022002B6043321278002A01D01A
:1042100001332B6023689B0602D52B6802332B6089
:10422000062723681F4027D0230043331B785A1EDC
:1042300093412268920630D42200019943320098BB
:10424000089EB047431C25D0062320682A68E168F1
:1042500003400025042B03D18D1AEB43DB171D40CF
:10426000A3682269934201DD9B1AED180027BD4225
:1042700020D1002010E00137E3682A689B1ABB4276
:10428000D2DD22000123193201990098089EB0471F
:10429000431CF0D101204042FEBD3020E1184331E3
:1042A000087021005A1C45310978A21843320233A4
:1042B0001170C1E7220001231A3201990098089E6B
:1042C000B047431CE6D00137D1E70000F0B589B014
:1042D00004920A0043320593039002920A7E0C0076
:1042E0000E9B6E2A00D186E01FD8632A33D008D8EF
:1042F000002A00D18CE0582A4DD0250042352A7082
:1043000030E0642A01D0692AF7D1196825680A1DAE
:10431000280629D508681A60002803DA2D23029A96
:10432000404213706B4E0A274FE0732A74D008D8AE
:104330006F2A1FD0702AE0D1202209680A43226028
:1043400003E0752A16D0782AD7D122007821453289
:104350001170614E22E025001A684235111D196066
:1043600013682B70012365E008681A606906D3D5CD
:1043700000B2D1E719682568081D186008682E0684
:1043800005D5544E08276F2A1BD00A2719E06D0661
:10439000F7D580B2F5E745314E4E0A7018682268AD
:1043A000011D00681960150621D5D30702D5202309
:1043B0001A4322601027002803D1202322689A4341
:1043C00022602300002243331A706368A360002B2D
:1043D00058DB0422216891432160002854D1029DBA
:1043E000002B5AD02500337842352B7055E0550606
:1043F000DBD580B2D9E71A680D68101D49691860CD
:1044000013682E0601D5196002E06D06FBD51980F0
:104410000023029D23614FE01A68111D1960156881
:1044200000216268280000F059F8002801D0401BE4
:104430006060636823610023029A13703CE0236983
:104440002A0004990398059DA847431C3ED0236881
:104450009B0715D4079BE068984239DA180037E0CB
:1044600022000123193204990398059EB047431C8A
:104470002CD00135E368079A9B1AAB42F0DCE9E7E0
:104480000025F7E70028ADD0029D3900FBF7CAFEF2
:10449000735C013D2B700028F7D1082F09D12368E8
:1044A000DB0706D563682269934202DC3023013DB5
:1044B0002B70029B5B1B2361059B07AA00932100C5
:1044C000049B0398FFF794FE431CB8D1012040429F
:1044D00009B0F0BDDD470008EE470008C9B28218F8
:1044E000904201D10020704703788B42FBD001300D
:1044F000F6E7002310B59A4200D110BDCC5CC4543D
:104500000133F8E710B5884202D98B18984203D3DB
:10451000002307E08B5C8354013AFBD210BDCC5CD6
:10452000C45401339A42FAD1F8E7000070B505008F
:10453000002910D00C1F2368002B00DAE418280093
:1045400000F0D4F81D4A1368002B05D16360146095
:10455000280000F0CCF870BDA34209D9216860188A
:104560008342F3D118685B6841182160EEE71300BD
:104570005A68002A01D0A242F9D919685818A042F5
:104580000BD120680918581819608242E0D11068D0
:104590005268411819605A60DAE7A04202D90C2328
:1045A0002B60D5E721686018824203D110685268F9
:1045B0004118216062605C60CAE7C046D8000020F4
:1045C000032370B5CD1C9D43083506000C2D1ED26B
:1045D0000C25A9421DD8300000F088F8254A14683F
:1045E0002100002919D1244C2368002B03D130006D
:1045F00000F06AF820602900300000F065F8431CE4
:104600002BD10C233000336000F071F803E0002D53
:10461000DFDA0C233360002070BD0B685B1B19D4FC
:104620000B2B03D90B60CC18256003E04B688C4240
:104630000DD11360300000F05AF8200007220B3033
:10464000231D9043C31AE7D05A42E250E4E7636067
:104650000C00EFE70C004968C3E70323C41C9C432C
:10466000A042E1D0211A300000F02EF8431CDBD12B
:10467000C7E7C046D8000020DC000020F8B50700DE
:104680000D001600002905D11100FFF799FF040065
:104690002000F8BD002A03D1FFF748FF3400F7E7F8
:1046A00000F026F82C00B042F2D231003800FFF7BB
:1046B00087FF041EECD029003200FFF71AFF290003
:1046C0003800FFF733FFE3E7002370B5064C050021
:1046D00008002360FCF7EAFB431C03D12368002B8E
:1046E00000D02B6070BDC046E004002070477047CA
:1046F0000B1F1B68181F002B01DA0B58C0187047DE
:10470000F8B5C046F8BC08BC9E467047F8B5C04630
:08471000F8BC08BC9E4670478E
:1047180002030405060708090A0B0C0D0E0F1010FA
:104728000102030405060708090A0B0C0D0E0F10F9
:10473800696E666F000000000000000000000000C5
:1047480072656164000000000000000000000000C5
:1047580064756D700000000000000000000000009B
:104768006572617365000000000000000000000031
:1047780064021402000000000A0A00001402140275
:10478800140214640000000096020000466C617375
:1047980068206D656D6F72793A2025642E25642531
:1047A800252066756C6C0A000000000000000000FF
:1047B80001020304060708090000000001020304BF
:1047C80000040802232D302B2000686C4C0065661D
:1047D800674546470030313233343536373839414A
:1047E8004243444546003031323334353637383960
:0847F800616263646566000064
:04480000E9000008C3
:04480400C1000008E7
:10480800904700080100000000127A000100000033
:104818000400000018000020000000000000000054
:104828000000000000000000000000000000000080
:104838000000000000000000000000000000000070
:104848000000000000000000000000000000000060
:104858000000000000000000000000000000000050
:104868000000000000000000000000000000000040
:08487800000000000000000038
:04000005080010E9F6
:00000001FF
