:020000040800F2
:10000000002000204D1F0008091B00080F1B0008DE
:1000100000000000000000000000000000000000E0
:10002000000000000000000000000000151B000898
:1000300000000000000000001F1B0008291B000832
:100040009D1F00089D1F00089D1F00089D1F0008A0
:100050009D1F00089D1F00089D1F00089D1F000890
:1000600000000000751B00088D1B00089D1F000884
:100070009D1F00089D1F00089D1F00089D1F000870
:100080009D1F00089D1F00089D1F00089D1F000860
:10009000000000009D1F0008B11B00089D1F000804
:1000A0009D1F0008C91B00089D1F0008E11B0008D8
:0C00B0009D1F00089D1F000800000000BC
:1000BC0010B5064C2378002B07D1054B002B02D032
:1000CC00044800E000BF0123237010BD780000201D
:1000DC0000000000EC860008044B10B5002B03D088
:1000EC000349044800E000BF10BDC04600000000FA
:1000FC007C000020EC8600080023C25C0133002A3F
:10010C00FBD1581E7047000003B4714649084000EB
:10011C004900095E49008E4403BC70470022430825
:10012C008B4274D303098B425FD3030A8B4244D3B3
:10013C00030B8B4228D3030C8B420DD3FF220902F5
:10014C0012BA030C8B4202D31212090265D0030BB4
:10015C008B4219D300E0090AC30B8B4201D3CB03AA
:10016C00C01A5241830B8B4201D38B03C01A5241EC
:10017C00430B8B4201D34B03C01A5241030B8B42EE
:10018C0001D30B03C01A5241C30A8B4201D3CB02D9
:10019C00C01A5241830A8B4201D38B02C01A5241BE
:1001AC00430A8B4201D34B02C01A5241030A8B42C1
:1001BC0001D30B02C01A5241CDD2C3098B4201D3D9
:1001CC00CB01C01A524183098B4201D38B01C01A57
:1001DC00524143098B4201D34B01C01A52410309CE
:1001EC008B4201D30B01C01A5241C3088B4201D37D
:1001FC00CB00C01A524183088B4201D38B00C01A2A
:10020C00524143088B4201D34B00C01A5241411A50
:10021C0000D20146524110467047FFE701B500205D
:10022C0000F0F0F802BDC0460029F7D076E7704721
:10023C0003460B437FD4002243088B4274D303093B
:10024C008B425FD3030A8B4244D3030B8B4228D3DC
:10025C00030C8B420DD3FF22090212BA030C8B4202
:10026C0002D31212090265D0030B8B4219D300E0A2
:10027C00090AC30B8B4201D3CB03C01A5241830B27
:10028C008B4201D38B03C01A5241430B8B4201D3D7
:10029C004B03C01A5241030B8B4201D30B03C01A00
:1002AC005241C30A8B4201D3CB02C01A5241830A7A
:1002BC008B4201D38B02C01A5241430A8B4201D3A9
:1002CC004B02C01A5241030A8B4201D30B02C01AD3
:1002DC005241CDD2C3098B4201D3CB01C01A52413A
:1002EC0083098B4201D38B01C01A524143098B42C3
:1002FC0001D34B01C01A524103098B4201D30B01AC
:10030C00C01A5241C3088B4201D3CB00C01A5241D0
:10031C0083088B4201D38B00C01A524143088B4295
:10032C0001D34B00C01A5241411A00D2014652412E
:10033C00104670475DE0CA0F00D04942031000D34D
:10034C004042534000229C4603098B422DD3030AA2
:10035C008B4212D3FC22890112BA030A8B420CD3B2
:10036C00890192118B4208D3890192118B4204D3DB
:10037C0089013AD0921100E08909C3098B4201D35B
:10038C00CB01C01A524183098B4201D38B01C01A95
:10039C00524143098B4201D34B01C01A524103090C
:1003AC008B4201D30B01C01A5241C3088B4201D3BB
:1003BC00CB00C01A524183088B4201D38B00C01A68
:1003CC005241D9D243088B4201D34B00C01A52413F
:1003DC00411A00D20146634652415B10104601D3CC
:1003EC004042002B00D54942704763465B1000D356
:1003FC00404201B5002000F005F802BD0029F8D0FC
:10040C0016E770477047C046002B11D1002A0FD158
:10041C00002900D1002802D00021C943081C07B4D0
:10042C00024802A14018029003BDC046D9FFFFFF4D
:10043C0003B4684601B5029800F006F8019B9E468D
:10044C0002B00CBC7047C046F0B557464E46454608
:10045C00DE46E0B504000D009246994683B08B420F
:10046C0030D82DD04946504600F0BAF82900060085
:10047C00200000F0B5F8331A9846203B9B4633D445
:10048C005A465346934042461F00534693401E0023
:10049C00AF423AD8AF4200D178E05B46A41BBD41D5
:1004AC00002B00DA75E00022002300920193012357
:1004BC005A4693400193012342469340009328E00F
:1004CC008242CFD900220023009201930C9B002B77
:1004DC0001D01C605D600098019903B0F0BCBB4674
:1004EC00B246A946A046F0BD424620239B1A52466E
:1004FC00DA40414613004A468A40170042461F43E1
:10050C00534693401E00AF42C4D9002200230092F0
:10051C0001934346002BD9D0FB0772081A43464679
:10052C007B080EE0AB4201D1A2420CD8A41A9D412B
:10053C00012024196D410021013E24184D41002E4B
:10054C0006D0AB42EED9013E24196D41002EF8D1F4
:10055C00009801995B4600196941002B24DB2B00A4
:10056C005A464446D3402A00E2401C005B46150024
:10057C00002B2ADB26009E40330026004746BE4057
:10058C003200801A9941009001919FE7A342BCD898
:10059C0083E74246202300219B1A002200910192FE
:1005AC000122DA40019286E7424620239B1A2A0058
:1005BC0046469A402300F340444613432A00E24047
:1005CC001C005B461500002BD4DA42462F0020237A
:1005DC00260097409B1ADE403B003343CDE7C046D4
:1005EC0010B5002903D100F007F8203002E0081CF8
:1005FC0000F002F810BDC0461C2101231B049842D8
:10060C0001D3000C10391B0A984201D3000A083997
:10061C001B09984201D30009043902A2105C40184E
:10062C007047C046040302020101010100000000F2
:10063C000000000080B500AF054B01221A7005497F
:10064C00054B0122180005F0A3F9C046BD4680BD3C
:10065C00AC000020AD0000201814002080B586B03E
:10066C0000AF78607B68012B37DD00237B6130E0C5
:10067C000F23FB1801221A7000233B6114E0194A66
:10068C007B691B01D2183B69D3181A7816493B6950
:10069C00CB181B789A4204D00F23FB1800221A7037
:1006AC0007E03B6901333B617B68013B3A699A4245
:1006BC00E5DB0F23FB181B78002B07D07B69DAB224
:1006CC000A4B1A700A4B01221A7007E07B6901333E
:1006DC007B617B69042BCBDD00E0C046BD4606B0D8
:1006EC0080BDC046888700089C0000209400002034
:1006FC009500002080B582B000AF0200FB1D1A707F
:10070C00104B1B68104AF91D0978D1540D4B1B680E
:10071C005A1C0C4B1A60FB1D1B780A2B07D1094B7A
:10072C001B681800FFF79AFF064B00221A60054B56
:10073C001B68102B02D1034B00221A60C046BD4629
:10074C0002B080BD980000209C00002080B582B0D3
:10075C0000AF7860094B1B78002B09D0084B1B7835
:10076C00DAB27B681A70054B00221A70012300E084
:10077C0000231800BD4602B080BDC0469500002085
:10078C009400002080B500AF034B180004F0CAFDA4
:10079C00C046BD4680BDC0467013002080B582B0F7
:1007AC0000AF0200FB1D1A701B4B1B78FA1D127850
:1007BC009A422CD0194B00221A70FB1D1B78042B6B
:1007CC0018D89A00164BD3181B689F46154B164A1F
:1007DC001A600FE0134B154A1A600BE0114B144AC8
:1007EC001A6007E00F4B134A1A6003E00D4B124AD4
:1007FC001A60C046114B00221A70114B00221A606D
:10080C00054BFA1D12781A70044B01221A70C0465F
:10081C00BD4602B080BDC046B400002004000020DC
:10082C000488000800000020D8870008DC87000836
:10083C00E4870008E8870008F4870008AE00002071
:10084C00B000002080B582B000AF01F01FFC0300A7
:10085C007B601C4B1B687A689A422FDB1A4B1B6817
:10086C001A4A12789B181B781A0013009B009B18CD
:10087C005B001A007B68D218124B1A60134B1B7862
:10088C001A000123134004D0A023DB0504229A6133
:10089C0003E0A023DB0504229A620C4B1B78013386
:1008AC00DAB20A4B1A70084B1B68084A12789B186C
:1008BC001B78002B02D1054B00221A70C046BD4696
:1008CC0002B080BDB000002000000020AE0000206F
:1008DC0080B582B000AF78607A68064B9A4205D139
:1008EC00054B1B78002B01D0FFF7ACFFC046BD4673
:1008FC0002B080BD701300200400002080B584B0CD
:10090C0000AF0200FB1D1A70124B00221A7000235C
:10091C00FB6010E0A023DB0504229A61962001F015
:10092C00BFFBA023DB0504229A62962001F0B8FBE2
:10093C00FB680133FB60FB1D1B78FA689A42E9DB0C
:10094C00642001F0ADFB034B01221A70C046BD467A
:10095C0004B080BD0400002080B500AF0B4B00221A
:10096C001A70A023DB0504229A61012001F098FB88
:10097C00A023DB0504229A62142001F091FB034BA7
:10098C0001221A70C046BD4680BDC046040000203E
:10099C0080B588B000AFB9607A600F217B18021C5B
:1009AC001A707B181B78002B07D0254A1023FB18D4
:1009BC001100180007F078FA06E0224A1023FB1801
:1009CC001100180007F070FA1023FA181E491F4B7B
:1009DC00180007F069FA1D4B1800FFF78DFB030098
:1009EC009AB201235B421949194804F025FFBA68F1
:1009FC001849164B180007F057FA144B1800FFF75C
:100A0C007BFB03009AB201235B421049104804F0AF
:100A1C0013FF7A6810490D4B180007F045FA0B4B81
:100A2C001800FFF769FB03009AB201235B420749E8
:100A3C00074804F001FFC046BD4608B080BDC04663
:100A4C00048700080887000810870008C0000020F1
:100A5C0018140020288700084887000880B500AFCC
:100A6C00074B1800FFF748FB03009AB201235B42C7
:100A7C000349044804F0E0FEC046BD4680BDC046B4
:100A8C00188800081814002080B582B000AF01F05F
:100A9C00FDFA03007B600D4B1B687A68D31AFA2BA6
:100AAC0010DD7B68FA331A00084B1A60084B1800EB
:100ABC00FFF722FB03009AB201235B42044905486D
:100ACC0004F0BAFEC046BD4602B080BD0001002055
:100ADC002088000818140020B0B5804CA54400AF45
:100AEC00002389229200BA1813607D4BFB18012257
:100AFC001A70002387229200BA18136000238622F2
:100B0C009200BA181360002385229200BA18136061
:100B1C0064E0002384229200BA1813601BE0842442
:100B2C00A4003B191B68DB001A007B1CFF339B18CD
:100B3C008925AD007A1912686A49180007F0B4F9D2
:100B4C002A00BB181B680133BA1813603B191B68C9
:100B5C0001333A19136084239B00FB181B681F2B6D
:100B6C00DDDD01F04DF980235A00791CFF3185231E
:100B7C009B00FB181B68180001F088F95A4B1B6886
:100B8C0000225A62C04601F059F9031EFBD1564BA4
:100B9C001B685B6A812189007A1813607B181A68BC
:100BAC00862080003B181B689A4203D97B181B686F
:100BBC003A181360872189007B181A6881239B00DF
:100BCC00FB181B68D3187A181360FFF75DFF85229A
:100BDC009200BB181B680133BA18136085239B0065
:100BEC00FB181A6880235B029A4292DB3F4B8022EF
:100BFC0052021A60002389229200BA181360002353
:100C0C0083229200BA18136047E0002382229200DC
:100C1C00BA1813601BE08224A4003B191B68DB008C
:100C2C001A007B1CFF339B188925AD007A191268BA
:100C3C002C49180007F038F92A00BB181B6801333F
:100C4C00BA1813603B191B6801333A1913608223DD
:100C5C009B00FB181B681F2BDDDD3A0083239B00D8
:100C6C00FB181B681100180001F090F880235A0043
:100C7C00791CFF313B00180007F0F6F8031E03D077
:100C8C00174BFB1800221A70FFF7FEFE832292000E
:100C9C00BB181B680133BA18136083239B00FB1825
:100CAC001A6880235B029A42AFDB87239B00FB18F8
:100CBC001B681B0C190086239B00FB181A68084B39
:100CCC00FB181B781800FFF763FEFFF7C7FEC04642
:100CDC00BD468A239B009D44B0BDC046D8FDFFFF96
:100CEC00230200006487000868150020B80000206B
:100CFC0080B500AF01F084F801F004F904E0FA20AB
:100D0C0001F0CEF9FFF7C0FE01F098F8031EF6D102
:100D1C00FFF7A4FE024B00221A60C046BD4680BD00
:100D2C00B8000020B0B5C4B000AF0200244B88213D
:100D3C0049008C46BC4463441A70214B88225200F3
:100D4C009446BC4463441B78002B06D080235B0282
:100D5C0086225200BA18136005E01A4B1B688622D3
:100D6C005200BA181360002384225200BA18136080
:100D7C0016E008257A19842464003B191B681100BD
:100D8C00180001F003F801235B428022520079190C
:100D9C000D4804F051FD3B191B6801333A191360DF
:100DAC0084235B00FB181A6886235B00FB181B6806
:100DBC009A42DEDBC046C046BD4644B0B0BDC0461C
:100DCC00F7FEFFFFB80000201814002080B5C6B055
:100DDC0000AF00238A225200BA18136080235B02F2
:100DEC0088225200B9180B60BB181B68862252006F
:100DFC00BA1813605CE08A235B00FB181A6888231E
:100E0C005B00FB181B68D318002B00DA01335B1056
:100E1C007A1CFF3213603A007B1CFF331B681100F5
:100E2C00180000F0B3FF0C23FF33FB1801221A70DB
:100E3C0000237A1DFF32136018E0264B8C225200DF
:100E4C00BA18D2187B1DFF331B68D3181B78FF2BE5
:100E5C0005D00C23FF33FB1800221A700BE07B1D0E
:100E6C00FF331B6801337A1DFF3213607B1DFF3388
:100E7C001B68FF2BE1DD0C23FF33FB181B78002BC9
:100E8C000ED07B1CFF331B6886225200BA181360ED
:100E9C007B1CFF331B6888225200BA18136007E0D2
:100EAC007B1CFF331B6801338A225200BA18136073
:100EBC008A235B00FB181A6888235B00FB181B68ED
:100ECC009A4298DB86235B00FB181B681800BD4612
:100EDC0046B080BDE8FEFFFF80B582B000AF786001
:100EEC007A68054B5A60044B180004F04FFCC0465E
:100EFC00BD4602B080BDC0461814002080B500AFBE
:100F0C000C4B1800FFF7E8FF00F0FCFEFFF75EFF4C
:100F1C000200094B1A6080239A000849084B1800FC
:100F2C0004F0A0FD074B180004F0B0F9C046BD4614
:100F3C0080BDC04660E31600B80000202C010020E4
:100F4C00181400206815002080B582B000AF7860BE
:100F5C00034B01221A70C046BD4602B080BDC0468C
:100F6C00B500002080B582B000AF7860034B022240
:100F7C001A70C046BD4602B080BDC046B500002008
:100F8C0080B582B000AF78603960164B1B781A02BE
:100F9C00154BD318802252007968180006F072FFA6
:100FAC00104B1B781A00114B92003968D1500D4B25
:100FBC001B780133DAB20B4B1A700A4B1B78102BCF
:100FCC0002D1084B00221A70064B1A78084B1B787A
:100FDC009A4202D1074B01221A70C046BD4602B09C
:100FEC0080BDC0462C1300202C03002030130020A1
:100FFC0028010020BC00002080B500AF00F01EFFCF
:10100C00031E34D11B4B1A781B4B1B789A422FD0E2
:10101C0000F0F6FE80231B0218480122190001F093
:10102C00EAFD154B1B781A00154B9200D35818008B
:10103C00114B1B781A02134BD31880225200190043
:10104C0000F024FF80231B020C480022190001F041
:10105C00D2FD094B1B780133DAB2074B1A70064BE1
:10106C001B78102B04D1044B00221A7000E0C046F0
:10107C00BD4680BD2C130020280100200008005024
:10108C00301300202C03002080B582B000AF00F09C
:10109C00FDFF03007B60FB1C00221A70FB1C1F4A27
:1010AC0012781A70FB1C1B78002B26D01C4B7A680C
:1010BC001A601A4B00221A70FB1C1B78012B02D1F0
:1010CC00184B194A1A60FB1C1B78022B02D1154BCA
:1010DC00164A1A60164B1A6880235B029A420CDA85
:1010EC00104B1A68124B1B6819001000FFF748FFD1
:1010FC000F4B1B685A1C0E4B1A60FFF77DFF084BF9
:10110C001B687A68D21A96235B009A4201DA022392
:10111C0000E000231800BD4602B080BDB5000020E1
:10112C0004010020080100202C0100202C020020CA
:10113C00B800002080B500AF054B180004F0FCFC93
:10114C00044B1800FFF7C8FEC046BD4680BDC04624
:10115C001814002020A1070080B500AF064B1A68B8
:10116C0080235B02D017D90F9A4248410300DBB2AF
:10117C001800BD4680BDC046B800002080B500AF49
:10118C00024B1B781800BD4680BDC046BC00002039
:10119C0090B59BB000AF184B1A6813005B019B1AFB
:1011AC009B009B18DB0002D5144A944663441B1425
:1011BC007B667B6E0A211800FFF73AF803001C00CF
:1011CC007B6E0A211800FFF719F90B000C49380047
:1011DC00220006F069FE3B001800FEF78DFF0300AD
:1011EC009AB201235B423900064804F025FBC04645
:1011FC00BD461BB090BDC046B8000020FFFF0000EC
:10120C006C8700081814002080B584B000AF78609B
:10121C0000F03CFF02007B68D318FB6009E0FFF78D
:10122C009BFB00F033FF0200FB689A4201D90123BB
:10123C0007E0064B0121180001F0C0FC031EEED0A4
:10124C0000231800BD4604B080BDC0460004005009
:10125C0080B584B000AF786000F018FF02007B68A6
:10126C00D318FB6007E000F011FF0200FB689A4204
:10127C0001D9012307E0064B0121180001F09EFC67
:10128C00031EF0D100231800BD4604B080BDC0463B
:10129C000004005080B500AFBFF34F8FC046044B25
:1012AC00044ADA60BFF34F8FC046C046FDE7C04624
:1012BC0000ED00E00400FA0590B583B000AF00F03B
:1012CC0069FE00F07FF800F0B7F900F0DBF900F0F0
:1012DC00D7F8C04600F062F900F038F900F00EF9CA
:1012EC0000F026FDFFF70AFEFFF74CFA0020FFF78F
:1012FC0055FAFC1DFFF7C8FE03002370FFF72CFF07
:10130C00031E02D0FB1D03221A70FFF737FF031ECA
:10131C0002D0FB1D04221A70FB1D1B781800FFF76E
:10132C003DFAFA239B001800FFF76EFF031E00D155
:10133C00DFE7C046FFF7FEFE0120FFF72FFA032080
:10134C00FFF7DCFAC046C820FFF782FF031EFAD075
:10135C00FFF770F9BB1D1800FFF7F8F9031E20D03A
:10136C000220FFF71BFABB1D1B78042B15D89A0023
:10137C00124BD3181B689F460020FFF7D3FC0DE0DF
:10138C000120FFF7CFFC09E0FFF7B2FC06E0FFF706
:10139C00FFFE03E0FFF7A0FB00E0C0460120FFF7D3
:1013AC00FDF9074B1800FFF72FFF031ED2D00220C8
:1013BC00FFF7F4F9FFF79CFCFFF76CFF248800089B
:1013CC00B80B000090B593B000AF10243B19180077
:1013DC0038231A00002106F05EFD3B001800102394
:1013EC001A00002106F057FD80239B00180001F025
:1013FC003BFC3B1902221A603B1980225200DA6036
:10140C0021007B1800221A617B1840225A617B183C
:10141C000222DA617B1802221A627B1810225A62AD
:10142C007B180F229A627B1880229202DA627B1858
:10143C00802292041A637B18802292055A637B18CF
:10144C00180001F05DFC031E01D000F0ABF93B006D
:10145C0007221A603B0002225A603B0000229A606D
:10146C003B000022DA603B000221180001F062FF11
:10147C00031E01D000F096F9C046BD4613B090BDD6
:10148C0080B500AF1B4B1C4A1A601A4B82225200CB
:10149C005A60184B00229A60164BE022D200DA6098
:1014AC00144B00221A61134B00225A61114B8022FB
:1014BC0092009A610F4B0822DA610E4B00221A62DD
:1014CC000C4B00225A620B4B00229A62094B0722EA
:1014DC00DA62084B00221A63064B08225A63054B4A
:1014EC00180002F04BFA031E01D000F05BF9C04665
:1014FC00BD4680BDA81400200030014080B500AF6F
:10150C000F4B104A1A600E4B3B225A600C4B0022B8
:10151C009A600B4B0C4ADA60094B00221A61084B9B
:10152C0000225A61064B00229A61054B180003F009
:10153C0055FE031E01D000F035F9C046BD4680BDF6
:10154C006815002000440140FFFF000080B500AF8B
:10155C000F4B104A1A600E4B3C225A600C4B002267
:10156C009A600B4B0C4ADA60094B00221A61084B4B
:10157C0000225A61064B00229A61054B180003F0B9
:10158C002DFE031E01D000F00DF9C046BD4680BDF6
:10159C0070130020004801401027000080B500AFF8
:1015AC00224B234A1A60214B224A5A601F4B0022BD
:1015BC009A601E4B0022DA601C4B00221A611B4BF6
:1015CC000C225A61194B00229A61184B0022DA61E5
:1015DC00164B00221A62154B00225A62134B002242
:1015EC009A62124B180004F0D1F8031E01D000F0DF
:1015FC00D9F80E4B0021180006F02CFB031E01D06D
:10160C0000F0D0F8094B0021180006F063FB031E14
:10161C0001D000F0C7F8054B180006F0E1FA031EE4
:10162C0001D000F0BFF8C046BD4680BD18140020A4
:10163C000038014060E3160080B582B000AF104B5B
:10164C009A6B0F4B01210A439A630D4B9B6B012242
:10165C0013407B607B6800220021092000F0F0FD24
:10166C00092000F002FE002200210A2000F0E8FD13
:10167C000A2000F0FAFDC046BD4602B080BDC0464F
:10168C000010024090B589B000AF0C243B19180033
:10169C0014231A00002106F0FEFB3F4B5A6B3E4B05
:1016AC0004210A435A633C4B5B6B04221340BB601E
:1016BC00BB68394B5A6B384B01210A435A63364B82
:1016CC005B6B012213407B607B68334B5A6B324B54
:1016DC0002210A435A63304B5B6B022213403B607E
:1016EC003B6880231B022D480022190001F083FA6D
:1016FC00A023DB0501220C21180001F07CFA3B1918
:10170C00802212021A603B1901225A603B190022F6
:10171C009A603B190022DA603B19204A190010002C
:10172C0001F0E8F83B1904221A603B1901225A60B7
:10173C003B1900229A603B190022DA603A19A02367
:10174C00DB051100180001F0D5F83B1908221A60CE
:10175C003B1901225A603B1900229A603B19022264
:10176C00DA603A19A023DB051100180001F0C2F869
:10177C003B1901221A603B1900225A603B190022C6
:10178C009A603B19064A1900100001F0B3F8C046E4
:10179C00BD4609B090BDC046001002400008005084
:1017AC000004005080B500AF72B6C046FEE70000E2
:1017BC0080B582B000AF0F4B1A6C0E4B01210A435F
:1017CC001A640C4B1B6C012213407B607B68094B29
:1017DC00DA6B084B802149050A43DA63054BDA6B57
:1017EC0080235B0513403B603B68C046BD4602B09E
:1017FC0080BDC0460010024090B58BB000AF786041
:10180C0014243B19180014231A00002106F043FB82
:10181C007B681B68494A934200D08AE0484B1A6C9B
:10182C00474B802149010A431A64454B1A6C8023AB
:10183C005B0113403B613B69414B5A6B404B0121AF
:10184C000A435A633E4B5B6B01221340FB60FB68FF
:10185C0021007B18E0221A607B1802225A607B1848
:10186C0000229A607B180322DA607B1800221A612E
:10187C007A18A023DB051100180001F03BF8314B5E
:10188C00314A1A602F4B10225A602E4B00229A605C
:10189C002C4B0022DA602B4B80221A61294B002240
:1018AC005A61284B00229A61264B0022DA61254BA3
:1018BC0000221A62234B180000F0F4FC031E01D026
:1018CC00FFF770FF7B681F4A9A651E4B7A689A6215
:1018DC001E4B1F4A1A601D4B11225A601B4B1022C3
:1018EC009A601A4B0022DA60184B80221A61174B4F
:1018FC0000225A61154B00229A61144B0022DA61C6
:10190C00124B00221A62114B180000F0CBFC031E84
:10191C0001D0FFF747FF7B680C4A5A650B4B7A687E
:10192C009A6200220021192000F08AFC192000F094
:10193C009CFCC046BD460BB090BDC046003001407B
:10194C00001002400C15002008000240B4150020C5
:10195C001C00024080B584B000AF78607B681B68C7
:10196C00184A93420ED1184B1A6C174B80218902DE
:10197C000A431A64144B1A6C80239B021340FB60BD
:10198C00FB681AE07B681B68104A934215D10E4B1A
:10199C001A6C0D4B8021C9020A431A640A4B1A6C4B
:1019AC008023DB021340BB60BB68002200211620A1
:1019BC0000F046FC162000F058FCC046BD4604B0B2
:1019CC0080BDC04600440140001002400048014068
:1019DC0090B595B000AF78603C23FB181800142329
:1019EC001A00002106F057FA14243B19180028237A
:1019FC001A00002106F04FFA7B681B683A4A9342A2
:101A0C006ED13B1901221A603B1900225A603B1916
:101A1C00180001F039FE031E01D0FFF7C3FE334B53
:101A2C001A6C324B8021C9010A431A642F4B1A6C71
:101A3C008023DB0113403B613B692C4B5A6B2B4BD6
:101A4C0002210A435A63294B5B6B02221340FB6051
:101A5C00FB683C217B18C0221A607B1802225A605A
:101A6C007B1800229A607B180022DA607B18002217
:101A7C001A617B181E4A1900100000F03BFF1D4B29
:101A8C001D4A1A601B4B32225A601A4B00229A6074
:101A9C00184B0022DA60174B80221A61154B00227A
:101AAC005A61144B00229A61124B2022DA61114BBD
:101ABC0000221A620F4B180000F0F4FB031E01D039
:101ACC00FFF770FE7B680B4ADA670A4B7A689A62FA
:101ADC00002200211B2000F0B3FB1B2000F0C5FBF3
:101AEC00C046BD4615B090BD003801400010024004
:101AFC0000040050BC1300203000024080B500AF41
:101B0C00FEE780B500AFFEE780B500AFC046BD462E
:101B1C0080BD80B500AFC046BD4680BD80B500AF6E
:101B2C000E4B1B78002B14D00D4B1B685A1C0C4B06
:101B3C001A600B4B1A68FA239B009A4209D1084B86
:101B4C0000221A6080231B02064A1900100001F0C3
:101B5C006FF800F089FAC046BD4680BDAC0000208D
:101B6C000C0100200008005080B500AF034B18009A
:101B7C0000F074FDC046BD4680BDC0460C1500206B
:101B8C0080B500AF054B180000F068FD044B180041
:101B9C0000F064FDC046BD4680BDC046B4150020B3
:101BAC00BC13002080B500AF034B180003F00EFCF3
:101BBC00C046BD4680BDC0467013002080B500AF46
:101BCC00034B180002F0B2FEC046BD4680BDC046B5
:101BDC00A814002080B500AF094B1B78002B09D04E
:101BEC00084B5B6ADBB21800FEF784FD054B064A16
:101BFC001A6203E0054B180004F04EF8BD4680BD98
:101C0C00AC00002000380140FFFF00001814002039
:101C1C0080B586B000AF7860144A154BD31A7B613F
:101C2C007B693B61134B1B68002B02D1114B124A91
:101C3C001A60104B1A687B68D3183A699A4207D21B
:101C4C0006F0E8F803000C221A6001235B4209E05D
:101C5C00084B1B68FB60074B1A687B68D218054B56
:101C6C001A60FB681800BD4606B080BD002000203D
:101C7C0000040000100100202816002080B500AFE1
:101C8C00C046BD4680BD000080B582B000AF786014
:101C9C00034B01221A70C046BD4602B080BDC0463F
:101CAC001C01002080B582B000AF7860034B01228C
:101CBC001A70C046BD4602B080BDC0461C01002053
:101CCC0080B500AFC046054B1B78DBB2002BFAD0B9
:101CDC00024B00221A70C046BD4680BD1C0100207C
:101CEC0080B582B000AF00237B6003E0C0467B6808
:101CFC0001337B607B68632BF8DDC046C046BD4674
:101D0C0002B080BD80B500AF074B00221A700123D2
:101D1C005B4205490548012201F0E8FEFFF7E0FFB0
:101D2C00C046BD4680BDC04614010020A81400204A
:101D3C0080B584B002AF124B9F221A70A023DB0532
:101D4C0008229A620F4A0E490F4801235B42009306
:101D5C00042302F023F8A023DB0508229A61094B27
:101D6C005B781A04074B9B781B021343054AD27805
:101D7C0013437B607B681800BD4602B080BDC04633
:101D8C001401002018010020A814002080B584B094
:101D9C0000AF786039607B681B02FB60164B032236
:101DAC001A70FB681B0CDAB2134B5A70FB681B0AD7
:101DBC00DAB2114B9A70FB68DAB20F4BDA70A023CF
:101DCC00DB0508229A6201235B420B490B48042273
:101DDC0001F08CFE80235A003968084B180002F081
:101DEC00B5FAFFF76DFFA023DB0508229A61C04608
:101DFC00BD4604B080BDC04614010020A8140020CC
:101E0C0080B500AF0B4B06221A70A023DB0508220D
:101E1C009A6201235B4207490748012201F066FEE2
:101E2C00A023DB0508229A61FFF75AFFC046BD4686
:101E3C0080BDC04614010020A814002080B582B0DB
:101E4C0002AF0F4B05221A70A023DB0508229A6201
:101E5C000C4A0B490C4801235B420093022301F00E
:101E6C009DFFA023DB0508229A61FFF739FF054B84
:101E7C005B7801221340DBB21800BD4680BDC04622
:101E8C001401002018010020A814002080B586B091
:101E9C0000AFF860B960BB1D1A80FB681B027B6148
:101EAC00164B02221A707B691B0CDAB2134B5A7058
:101EBC007B691B0ADAB2114B9A70104B0022DA7054
:101ECC00A023DB0508229A6201235B420B490C48D4
:101EDC00042201F00BFEBB1D1A88B968084B1800D0
:101EEC0002F02EF9FFF7ECFEA023DB0508229A6125
:101EFC00FFF7F6FEC046BD4606B080BD14010020BB
:101F0C00A814002080B500AF0B4BC7221A70A02379
:101F1C00DB0508229A6201235B420749074801222C
:101F2C0001F0E4FDA023DB0508229A61FFF7D8FE3F
:101F3C00C046BD4680BDC04614010020A814002038
:101F4C000D488546FFF79AFE0C480D490D4A0023B3
:101F5C0002E0D458C4500433C4188C42F9D30A4A52
:101F6C000A4C002301E013600432A242FBD305F0BB
:101F7C0057FFFFF7A1F9FEE700200020000000202A
:101F8C007800002004890008780000202416002026
:101F9C00FEE7000080B582B000AFFB1D00221A7076
:101FAC000B4B1A680A4B802149000A431A60032024
:101FBC0000F010F8031E03D0FB1D01221A7001E083
:101FCC00FFF7F6FBFB1D1B781800BD4602B080BD69
:101FDC000020024090B585B000AF78600F23FB184D
:101FEC0000221A701D4B1B78002B2BD01C4B1C682D
:101FFC001A4B1B781900FA239800FEF78FF8030090
:10200C0019002000FEF78AF80300180000F03DF9D3
:10201C00031E12D17B68032B0AD8796801235B421B
:10202C000022180000F00CF90E4B7A681A600DE0D3
:10203C000F23FB1801221A7008E00F23FB18012252
:10204C001A7003E00F23FB1801221A700F23FB18E0
:10205C001B781800BD4605B090BDC046100000208E
:10206C00080000200C00002080B500AF054B1B7849
:10207C001A00054B1B68D218034B1A60C046BD46AC
:10208C0080BDC046100000201016002080B500AFA7
:10209C00024B1B681800BD4680BDC04610160020C0
:1020AC0080B584B000AF7860FFF7F0FF0300BB6031
:1020BC007B68FB60FB68013305D00A4B1B781A0068
:1020CC00FB689B18FB60C046FFF7E0FF0200BB6893
:1020DC00D31AFA689A42F7D8C046C046BD4604B037
:1020EC0080BDC0461000002080B582B000AF020059
:1020FC00FB1D1A70FB1D1B787F2B09D8FB1D1B7851
:10210C001A001F231A40044B012191400A001A6047
:10211C00C046BD4602B080BD00E100E090B583B082
:10212C0000AF02003960FB1D1A70FB1D1B787F2B62
:10213C0028D82F4AFB1D1B785BB29B08C0339B0031
:10214C009B58FA1D1278110003220A40D200FF217D
:10215C0091400A00D2431A4011003B689B01FF22B8
:10216C001A40FB1D1B78180003230340DB009A4028
:10217C001F48FB1D1B785BB29B080A43C0339B00B6
:10218C001A5031E01B4AFB1D1B7819000F230B4022
:10219C00083B9B0806339B00D31804331B68FA1DBD
:1021AC001278110003220A40D200FF2191400A004C
:1021BC00D2431A4011003B689B01FF221A40FB1DC1
:1021CC001B78180003230340DB009A400948FB1DD1
:1021DC001B781C000F232340083B9B080A43063343
:1021EC009B00C31804331A60C046BD4603B090BDB3
:1021FC0000E100E000ED00E080B582B000AF786057
:10220C007B685A1E80235B049A4201D3012310E0A1
:10221C000A4B7A68013A5A6001235B420321180089
:10222C00FFF77CFF054B00229A60044B07221A60D3
:10223C0000231800BD4602B080BDC04610E000E08F
:10224C0080B584B000AFB9607A600F217B18021C96
:10225C001A70BA687B181B785BB211001800FFF774
:10226C005DFFC046BD4604B080BD80B582B000AFF6
:10227C000200FB1D1A70FB1D1B785BB21800FFF7E8
:10228C0033FFC046BD4602B080BD80B582B000AF02
:10229C0078607B681800FFF7AFFF03001800BD469D
:1022AC0002B080BD80B582B000AF78607B68002B37
:1022BC0001D1012377E07B681B683D4A9446634457
:1022CC0014211800FDF72AFF03009A007B681A649A
:1022DC007B682522022199547B681B681A687B68ED
:1022EC001B6834490A401A607B681B6819687B6854
:1022FC009A687B68DB681A437B681B691A437B68A6
:10230C005B691A437B689B691A437B68DB691A43D8
:10231C007B681B6A1A437B681B680A431A607B68DC
:10232C00180000F097FA7B689A688023DB019A42C8
:10233C0002D17B6800225A607B685A687B685B6CB0
:10234C003F210A401A607B689B6C7A68D26C5A6099
:10235C007B685B68002B11D07B685B68042B0DD805
:10236C007B68180000F0A2FA7B681B6D00221A60D3
:10237C007B685B6D7A68926D5A6008E07B6800221E
:10238C001A657B6800225A657B6800229A657B6817
:10239C000022DA637B682522012199547B68242270
:1023AC000021995400231800BD4602B080BDC046E0
:1023BC00F8FFFDBF0F80FFFF80B586B000AFF8605F
:1023CC00B9607A603B601723FB1800221A70FB6817
:1023DC0024229B5C012B01D102236FE0FB68242299
:1023EC0001219954FB6825229B5CDBB2012B57D150
:1023FC00FB68252202219954FB680022DA63FB68F2
:10240C001B681A68FB681B6801218A431A603B68C9
:10241C007A68B968F86800F0DDF9FB681B6B002B73
:10242C0008D0FB681B681A68FB681B680E210A43FE
:10243C001A600FE0FB681B681A68FB681B680421B4
:10244C008A431A60FB681B681A68FB681B680A21C0
:10245C000A431A60FB685B6C1A6880235B021340AA
:10246C0008D0FB685B6C1A68FB685B6C80214900C8
:10247C000A431A60FB681B6D002B08D0FB681B6DB0
:10248C001A68FB681B6D802149000A431A60FB68BF
:10249C001B681A68FB681B6801210A431A600AE072
:1024AC00FB688022DA63FB682422002199541723ED
:1024BC00FB1801221A701723FB181B781800BD4655
:1024CC0006B080BD80B582B000AF78607B68002B11
:1024DC0001D1012350E07B6825229B5CDBB2022BEF
:1024EC0008D07B680422DA637B682422002199548B
:1024FC00012341E07B681B681A687B681B680E210E
:10250C008A431A607B685B6C1A687B685B6C1C493D
:10251C000A401A607B681B681A687B681B6801217B
:10252C008A431A60174B59687B681B6C1C2213403A
:10253C0001229A40134B0A435A607B689B6C7A6861
:10254C00D26C5A607B681B6D002B0CD07B681B6DAA
:10255C001A687B681B6D0A490A401A607B685B6DC0
:10256C007A68926D5A607B682522012199547B68A8
:10257C0024220021995400231800BD4602B080BDCE
:10258C00FFFEFFFF0000024080B584B000AF786012
:10259C000F217B1800221A707B6825229B5CDBB212
:1025AC00022B06D07B680422DA637B1801221A7096
:1025BC0049E07B681B681A687B681B680E218A439C
:1025CC001A607B681B681A687B681B6801218A4348
:1025DC001A607B685B6C1A687B685B6C1D490A40EF
:1025EC001A601D4B59687B681B6C1C22134001221E
:1025FC009A40194B0A435A607B689B6C7A68D26C80
:10260C005A607B681B6D002B0CD07B681B6D1A68A5
:10261C007B681B6D0F490A401A607B685B6D7A689A
:10262C00926D5A607B682522012199547B68242283
:10263C00002199547B689B6B002B04D07B689B6BAF
:10264C007A68100098470F23FB181B781800BD46BA
:10265C0004B080BDFFFEFFFF0000024080B584B0D7
:10266C0000AF7860554B1B68FB607B681B681B6870
:10267C00BB607B681B6C1C22134004229A40130025
:10268C00FA68134027D0BB680422134023D07B6820
:10269C001B681B682022134007D17B681B681A68D3
:1026AC007B681B6804218A431A60444B59687B6819
:1026BC001B6C1C22134004229A40404B0A435A6064
:1026CC007B681B6B002B00D173E07B681B6B7A68FB
:1026DC00100098476DE07B681B6C1C221340022293
:1026EC009A401300FA6813402ED0BB6802221340A4
:1026FC002AD07B681B681B68202213400BD17B6897
:10270C001B681A687B681B680A218A431A607B68FD
:10271C00252201219954294B59687B681B6C1C227A
:10272C00134002229A40254B0A435A607B682422AC
:10273C00002199547B68DB6A002B3AD07B68DB6AFA
:10274C007A681000984734E07B681B6C1C2213409D
:10275C0008229A401300FA6813402BD0BB68082259
:10276C00134027D07B681B681A687B681B680E2196
:10277C008A431A60114B59687B681B6C1C221340EE
:10278C0001229A400D4B0A435A607B680122DA639E
:10279C007B682522012199547B68242200219954BD
:1027AC007B685B6B002B05D07B685B6B7A681000D9
:1027BC009847C046C046BD4604B080BD00000240EC
:1027CC0080B582B000AF78607B68DB6B1800BD46CB
:1027DC0002B080BD80B584B000AFF860B9607A609B
:1027EC003B60FB689B6CFA68D26C5A60FB681B6D93
:1027FC00002B04D0FB685B6DFA68926D5A60144B29
:10280C005968FB681B6C1C22134001229A40104B28
:10281C000A435A60FB681B683A685A60FB689B68FD
:10282C00102B08D1FB681B687A689A60FB681B68E0
:10283C00BA68DA6007E0FB681B68BA689A60FB68E4
:10284C001B687A68DA60C046BD4604B080BDC046DD
:10285C000000024080B584B000AF78607B681B6CD0
:10286C009B08104A944663449B001A007B685A6488
:10287C007B681B681A00FF231340083B14211800C7
:10288C00FDF74CFC0300FB607B68074A9A64FB680D
:10289C001F22134001229A407B68DA64C046BD4671
:1028AC0004B080BD008200108008024080B584B066
:1028BC0000AF78607B685B683F221340FB60FB686D
:1028CC000A4A944663449B001A007B681A657B682D
:1028DC00074A5A65FB68013B0322134001229A40C8
:1028EC007B689A65C046BD4604B080BD3F8200102F
:1028FC004009024080B586B000AF78603960002393
:10290C007B6147E13B681B6801217A6991400A00B1
:10291C001340FB60FB68002B00D138E13B685B681F
:10292C0003221340012B05D03B685B680322134044
:10293C00022B30D17B689B683B617B695B00032277
:10294C009A401300DA433B6913403B613B68DA68F9
:10295C007B695B009A4013003A6913433B617B68C7
:10296C003A699A607B685B683B6101227B699A409B
:10297C001300DA433B6913403B613B685B681B09FE
:10298C0001221A407B699A4013003A6913433B6158
:10299C007B683A695A603B685B6803221340032BDF
:1029AC0017D07B68DB683B617B695B0003229A4034
:1029BC001300DA433B6913403B613B689A687B69BF
:1029CC005B009A4013003A6913433B617B683A6998
:1029DC00DA603B685B6803221340022B23D17B69CE
:1029EC00DA087B6808329200D3583B617B69072276
:1029FC0013409B000F229A401300DA433B691340AB
:102A0C003B613B681A697B6907210B409B009A402C
:102A1C0013003A6913433B617B69DA087B6808321F
:102A2C0092003969D1507B681B683B617B695B0004
:102A3C0003229A401300DA433B6913403B613B6825
:102A4C005B6803221A407B695B009A4013003A6969
:102A5C0013433B617B683A691A603B685A68C02330
:102A6C009B02134000D192E0504A7B699B081833BB
:102A7C009B009B583B617B6903221340DB000F22B8
:102A8C009A401300DA433B6913403B617A68A023F8
:102A9C00DB059A4213D07B68454A93420DD07B6884
:102AAC00444A934207D07B68434A934201D10323A3
:102ABC0006E0052304E0022302E0012300E00023EA
:102ACC007A6903210A40D20093403A6913433B616F
:102ADC0036497B699B0818339B003A695A50334B33
:102AEC001B683B61FB68DA433B6913403B613B6805
:102AFC005A6880235B03134003D03A69FB68134385
:102B0C003B612A4B3A691A60284B5B683B61FB6856
:102B1C00DA433B6913403B613B685A6880239B0353
:102B2C00134003D03A69FB6813433B611F4B3A696E
:102B3C005A601E4A8423D3583B61FB68DA433B69D5
:102B4C0013403B613B685A6880239B02134003D0BF
:102B5C003A69FB6813433B61144984223B698B50EF
:102B6C00124A8023D3583B61FB68DA433B6913401C
:102B7C003B613B685A6880235B02134003D03A697F
:102B8C00FB6813433B61094980223B698B507B698D
:102B9C0001337B613B681A687B69DA40131E00D0F5
:102BAC00B0E6C046C046BD4606B080BD0018024027
:102BBC000004005000080050000C005080B584B098
:102BCC0000AF78600A00BB1C1A807B681B69BA1CBA
:102BDC001288134004D00F23FB1801221A7003E053
:102BEC000F23FB1800221A700F23FB181B781800F8
:102BFC00BD4604B080BD80B582B000AF78600800DF
:102C0C001100BB1C021C1A807B1C0A1C1A707B1C3A
:102C1C001B78002B04D0BB1C1A887B689A6103E0DC
:102C2C00BB1C1A887B689A62C046BD4602B080BD48
:102C3C0080B584B000AF78600A00BB1C1A807B683A
:102C4C005B69FB60BB1C1B88FA6813401A04FB68A9
:102C5C00DB43B91C09880B401A437B689A61C04658
:102C6C00BD4604B080BD000080B584B000AF786074
:102C7C00194B1B68194A13401900174B7A680A4301
:102C8C001A607A6880239B009A421FD1144B1A68F1
:102C9C0013005B009B185B0012491800FDF73EFA0D
:102CAC0003000133FB6008E0FB68002B03D0FB68DA
:102CBC00013BFB6001E0032309E0074B5A698023C9
:102CCC00DB001A408023DB009A42EDD00023180071
:102CDC00BD4604B080BDC04600700040FFF9FFFF48
:102CEC000800002040420F0080B500AF034B9A68EB
:102CFC00E023DB0113401800BD4680BD00100240EC
:102D0C0080B588B000AF78607B68002B01D10123BF
:102D1C00FEE27B681B680122134000D17CE0C34BB0
:102D2C009B6838221340BB61C04BDB680322134005
:102D3C007B61BB69102B02D17B69032B02D0BB6971
:102D4C00082B0BD1B94B1A6880239B02134062D01D
:102D5C007B685B68002B5ED10123D9E27B685A68E3
:102D6C0080235B029A4207D1B04B1A68AF4B80218B
:102D7C0049020A431A6020E07B685A68A023DB02F0
:102D8C009A420ED1A94B1A68A84B8021C9020A435A
:102D9C001A60A64B1A68A54B802149020A431A6097
:102DAC000BE0A24B1A68A14BA1490A401A609F4B39
:102DBC001A689E4B9F490A401A607B685B68002B1F
:102DCC0014D0FFF763F903003B6108E0FFF75EF9ED
:102DDC0002003B69D31A642B01D9032398E2934B6D
:102DEC001A6880239B021340F0D015E0FFF74EF9D0
:102DFC0003003B6108E0FFF749F902003B69D31A75
:102E0C00642B01D9032383E2884B1A6880239B022D
:102E1C001340F0D100E0C0467B681B6802221340CF
:102E2C0000D199E0814B9B6838221340BB617F4BEA
:102E3C00DB68032213407B61BB69102B02D17B69D9
:102E4C00022B02D0BB69002B35D1784B1A6880233A
:102E5C00DB00134005D07B68DB68002B01D101231C
:102E6C0056E2724B5B68744A134019007B685B69CD
:102E7C001A026E4B0A435A60BB69002B12D16B4B82
:102E8C001B686E4A134019007B681A69674B0A432A
:102E9C001A60664B1B68DB0A07221340684ADA404B
:102EAC00684B1A60684B1B681800FFF793F8031EF9
:102EBC0051D001232CE27B68DB68002B30D05B4BBC
:102ECC001B685E4A134019007B681A69574B0A430A
:102EDC001A60564B1A68554B802149000A431A60F8
:102EEC00FFF7D4F803003B6108E0FFF7CFF80200CE
:102EFC003B69D31A022B01D9032309E24B4B1A6805
:102F0C008023DB001340F0D0484B5B684A4A1340E7
:102F1C0019007B685B691A02444B0A435A601BE038
:102F2C00424B1A68414B49490A401A60FFF7AEF808
:102F3C0003003B6108E0FFF7A9F802003B69D31AD4
:102F4C00022B01D90323E3E1384B1A688023DB0001
:102F5C001340F0D100E0C0467B681B680822134088
:102F6C0047D0324B9B6838221340182B0AD12F4B79
:102F7C001B6E022213403CD07B689B69002B38D11E
:102F8C000123C5E17B689B69002B19D0274B1A6E76
:102F9C00264B01210A431A66FFF778F803003B61C0
:102FAC0008E0FFF773F802003B69D31A022B01D932
:102FBC000323ADE11D4B1B6E02221340F1D018E030
:102FCC001A4B1A6E194B01218A431A66FFF75EF8E9
:102FDC0003003B6108E0FFF759F802003B69D31A84
:102FEC00022B01D9032393E1104B1B6E02221340D9
:102FFC00F1D17B681B680422134000D1C6E01F236B
:10300C00FB1800221A70094B9B6838221340202BA6
:10301C001ED1064BDB6D0222134000D1B6E07B685B
:10302C009B68002B00D0B1E0012371E1001002403D
:10303C00FFFFFEFFFFFFFBFFFF80FFFFFFC7FFFF50
:10304C000024F400080000200C000020FFFEFFFF0D
:10305C00B14BDA6B80235B05134001D1012300E0F7
:10306C000023002B11D0AC4BDA6BAB4B8021490504
:10307C000A43DA63A84BDA6B80235B051340FB60D1
:10308C00FB681F23FB1801221A70A44B1A688023BB
:10309C005B0013401AD1A14B1A68A04B8021490048
:1030AC000A431A60FEF7F2FF03003B6108E0FEF7EB
:1030BC00EDFF02003B69D31A022B01D9032327E150
:1030CC00964B1A6880235B001340F0D07B689B689A
:1030DC00012B06D1904BDA6D8F4B01210A43DA6537
:1030EC001CE07B689B68052B0CD18B4BDA6D8A4BF3
:1030FC0004210A43DA65884BDA6D874B01210A43B8
:10310C00DA650BE0844BDA6D834B01218A43DA6577
:10311C00814BDA6D804B04218A43DA657B689B68AE
:10312C00002B14D0FEF7B2FF03003B6109E0FEF761
:10313C00ADFF02003B69D31A794A934201D90323AC
:10314C00E6E0754BDB6D02221340F0D013E0FEF786
:10315C009DFF03003B6109E0FEF798FF02003B690D
:10316C00D31A6F4A934201D90323D1E06A4BDB6D2A
:10317C0002221340F0D11F23FB181B78012B05D121
:10318C00654BDA6B644B67490A40DA637B68DB6931
:10319C00002B00D1BBE0604B9B6838221340102BF6
:1031AC0000D17BE07B68DB69022B56D15A4B1A6845
:1031BC00594B5D490A401A60FEF768FF03003B61FA
:1031CC0008E0FEF763FF02003B69D31A022B01D91A
:1031DC0003239DE0504B1A6880239B041340F0D1CD
:1031EC004D4BDB68514A134019007B681A6A7B68A7
:1031FC005B6A1A437B689B6A1B021A437B68DB6A17
:10320C001A437B681B6B1A437B685B6B1A43424BFC
:10321C000A43DA60404B1A683F4B802149040A4349
:10322C001A603D4BDA683C4B802149050A43DA6051
:10323C00FEF72CFF03003B6108E0FEF727FF0200BE
:10324C003B69D31A022B01D9032361E0324B1A6874
:10325C0080239B041340F0D059E02F4B1A682E4B5F
:10326C0031490A401A60FEF711FF03003B6108E088
:10327C00FEF70CFF02003B69D31A022B01D9032382
:10328C0046E0254B1A6880239B041340F0D1224B57
:10329C00DA68214B26490A40DA6038E07B68DB6942
:1032AC00012B01D1012333E01B4BDB687B617B6974
:1032BC0003221A407B681B6A9A4226D17B697022D2
:1032CC001A407B685B6A9A421FD17A69FE23DB0144
:1032DC001A407B689B6A1B029A4216D17A69F823C2
:1032EC009B031A407B68DB6A9A420ED17A69E02311
:1032FC001B051A407B681B6B9A4206D17B695B0FDE
:10330C005A077B685B6B9A4201D0012300E00023D3
:10331C001800BD4608B080BD00100240007000408F
:10332C0088130000FFFFFFEFFFFFFFFE8C80C11131
:10333C00FCFFFEEE80B584B000AF786039607B682E
:10334C00002B01D10123E9E0764B1B6807221340C7
:10335C003A689A421ED9734B1B6807229343190093
:10336C00704B3A680A431A60FEF790FE0300FB604C
:10337C0009E0FEF78BFE0200FB68D31A6A4A9342FF
:10338C0001D90323CAE0674B1B68072213403A6834
:10339C009A42EED17B681B680222134015D07B68E1
:1033AC001B680422134006D0604B9A685F4BE021E7
:1033BC00C9010A439A605D4B9B685D4A1340190032
:1033CC007B689A68594B0A439A607B681B68012298
:1033DC00134057D07B685B68012B07D1534B1A689D
:1033EC0080239B0213402BD1012397E07B685B6801
:1033FC00022B07D14D4B1A6880239B0413401FD11D
:10340C0001238BE07B685B68002B07D1474B1A6864
:10341C008023DB00134013D101237FE07B685B68C2
:10342C00032B06D1414B1B6E0222134008D1012302
:10343C0074E03E4BDB6D0222134001D101236DE0A1
:10344C003A4B9B680722934319007B685A68374BA9
:10345C000A439A60FEF71AFE0300FB6009E0FEF7D0
:10346C0015FE0200FB68D31A2F4A934201D903239D
:10347C0054E02E4B9B6838221A407B685B68DB005B
:10348C009A42ECD1274B1B68072213403A689A42A8
:10349C001ED2244B1B68072293431900214B3A6818
:1034AC000A431A60FEF7F2FD0300FB6009E0FEF729
:1034BC00EDFD0200FB68D31A1B4A934201D903238A
:1034CC002CE0184B1B68072213403A689A42EED145
:1034DC007B681B680422134009D0144B9B68154A67
:1034EC00134019007B68DA68104B0A439A6000F0AD
:1034FC0029F801000D4B9B681B0A0F221A400E4B3A
:10350C009200D3581F2213400A00DA400B4B1A606A
:10351C000B4B1B681800FEF75DFD03001800BD4641
:10352C0004B080BD0020024088130000001002404F
:10353C00FFF0FFFFFF8FFFFF388800080800002016
:10354C000C00002080B586B000AF3C4B9B68382245
:10355C0013400FD1394B1B68DB0A072213400122A1
:10356C009A4013003B6039683548FCF7D7FD0300DF
:10357C003B615DE0314B9B6838221340082B02D134
:10358C00304B3B6154E02D4B9B6838221340102B81
:10359C0038D12A4BDB6803221340FB60274BDB68D6
:1035AC001B09072213400133BB60FB68032B0DD1B1
:1035BC00B9682448FCF7B2FD030019001F4BDB6807
:1035CC001B0A7F2213404B437B610DE0B9681C48FA
:1035DC00FCF7A4FD03001900184BDB681B0A7F22C3
:1035EC0013404B437B61C046144BDB685B0F0722D7
:1035FC00134001337B6079687869FCF78FFD030019
:10360C003B6115E00D4B9B6838221340202B03D1F6
:10361C0080231B023B610BE0084B9B683822134054
:10362C00182B03D1FA23DB013B6101E000233B6142
:10363C003B691800BD4606B080BDC0460010024074
:10364C000024F40000127A0080B500AF024B1B6816
:10365C001800BD4680BDC04608000020B0B500AFC4
:10366C00FFF7F2FF0400FFF73FFB03001A0B054BBB
:10367C009200D3581F221340DC4023001800BD4693
:10368C00B0BDC0467888000880B586B000AF7860C1
:10369C001323FB1800221A701223FB1800221A7035
:1036AC007B681A6880239B02134000D1A3E0112091
:1036BC003B1800221A70A54BDA6B80235B05134074
:1036CC0010D1A24BDA6BA14B802149050A43DA6376
:1036DC009E4BDA6B80235B051340BB60BB683B18C9
:1036EC0001221A709A4B1A68994B802149000A439F
:1036FC001A60FEF7CBFC0300FB600BE0FEF7C6FC88
:10370C000200FB68D31A022B04D91323FB180322E3
:10371C001A7005E08E4B1A6880235B001340EDD0C5
:10372C001323FB181B78002B54D1884BDA6DC02364
:10373C009B0013407B617B69002B19D07B685B6A13
:10374C007A699A4214D0814BDB6D824A13407B61BB
:10375C007E4BDA6D7D4B802149020A43DA657B4B47
:10376C00DA6D7A4B7C490A40DA65784B7A69DA650E
:10377C007B690122134016D0FEF788FC0300FB6026
:10378C000CE0FEF783FC0200FB68D31A734A9342E9
:10379C0004D91323FB1803221A7004E06B4BDB6D66
:1037AC0002221340EDD01323FB181B78002B0AD1F7
:1037BC00664BDB6D674A134019007B685A6A634B92
:1037CC000A43DA650CE01223FB181322BA1812789C
:1037DC001A7005E01223FB181322BA1812781A700B
:1037EC001123FB181B78012B05D1584BDA6B574B67
:1037FC005B490A40DA637B681B680122134009D0DD
:10380C00524B5B6D0322934319007B685A684F4BF4
:10381C000A435A657B681B681022134009D04B4B36
:10382C005B6D504A134019007B689A68474B0A43FA
:10383C005A657B681A6880239B00134009D0434B60
:10384C005B6D494A134019007B685A693F4B0A4328
:10385C005A657B681A688023DB00134009D03B4B08
:10386C005B6D424A134019007B689A69374B0A43D7
:10387C005A657B681B682022134009D0334B5B6D63
:10388C003B4A134019007B68DA68304B0A435A658F
:10389C007B681A688023DB01134015D02B4B5B6DC2
:1038AC009B0099087B68DA69284B0A435A657B6848
:1038BC00DA698023DB059A4206D1244BDA68234B64
:1038CC00802149020A43DA607B681A6880239B03D3
:1038DC00134016D01D4B5B6D264A134019007B68B4
:1038EC001A6A1A4B0A435A657B681A6A8023DB03EF
:1038FC009A4206D1154BDA68144B802149040A43CD
:10390C00DA607B681A6880231B01134016D00F4BBA
:10391C005B6D194A134019007B681A690B4B0A43FB
:10392C005A657B681A698023DB019A4206D1074BE2
:10393C00DA68064B802149020A43DA601223FB182D
:10394C001B781800BD4606B080BDC0460010024072
:10395C0000700040FFFCFFFFFFFFFEFF881300001C
:10396C00FFFFFFEFFFF3FFFFFFFFF3FFFFFFCFFFB3
:10397C00FFCFFFFFFFFFBFFFFF3FFFFF80B584B00E
:10398C0000AF78607B68002B01D10123A8E07B6835
:10399C005B6A002B09D17B685A6882235B009A42D0
:1039AC0009D07B680022DA6105E07B6800221A618D
:1039BC007B6800225A617B6800229A627B685D22D8
:1039CC009B5CDBB2002B07D17B685C2200219954F5
:1039DC007B681800FDF710FF7B685D22022199546B
:1039EC007B681B681A687B681B6840218A431A60D5
:1039FC007B68DA68E023DB009A4202D90023FB6083
:103A0C0002E080235B01FB607B68DA68F0231B011A
:103A1C009A4208D07B68DA68E023DB009A4202D035
:103A2C007B6800229A627B685A6882235B001A408A
:103A3C007B68996884231B020B401A437B681B69C3
:103A4C0002210B401A437B685B6901210B401A432E
:103A5C007B68996980239B000B401A437B68DB6968
:103A6C0038210B401A437B681B6A80210B401A4398
:103A7C0011007B689A6A80239B011A407B681B6843
:103A8C000A431A607B689B691B0C04221A407B68F2
:103A9C005B6A10210B401A437B685B6B08210B405F
:103AAC001A437B68D968F0231B010B401A431100A1
:103ABC00FA6880235B011A407B681B680A435A60D2
:103ACC007B681B68DA697B681B6807490A40DA6106
:103ADC007B6800221A667B685D22012199540023C1
:103AEC001800BD4604B080BDFFF7FFFF80B588B05D
:103AFC0000AFF860B9603B60BB1D1A801F23FB1838
:103B0C0000221A70FB685C229B5C012B01D1022302
:103B1C0040E1FB685C2201219954FEF7B7FA0300DF
:103B2C00BB611623FB18BA1D12881A80FB685D2234
:103B3C009B5CDBB2012B04D01F23FB1802221A70F2
:103B4C001DE1BB68002B03D0BB1D1B88002B04D1CF
:103B5C001F23FB1801221A7011E1FB685D2203215F
:103B6C009954FB6800221A66FB68BA689A63FB6872
:103B7C00BA1D12889A87FB68BA1D1288DA87FB680F
:103B8C0000221A64FB68442200219952FB684622E9
:103B9C0000219952FB6800221A65FB680022DA6446
:103BAC00FB689A6880231B029A4210D1FB681B6841
:103BBC001A68FB681B6840218A431A60FB681B6803
:103BCC001A68FB681B688021C9010A431A60FB68EC
:103BDC001B681B6840221340402B07D0FB681B68F6
:103BEC001A68FB681B6840210A431A60FB68DA6894
:103BFC00E023DB009A424ED9FB685B68002B04D0B3
:103C0C001623FB181B88012B3FD1FB689B6B1A8872
:103C1C00FB681B68DA60FB689B6B9A1CFB689A63F9
:103C2C00FB68DB8F9BB2013B9AB2FB68DA872CE016
:103C3C00FB681B689B6802221340022B12D1FB68A5
:103C4C009B6B1A88FB681B68DA60FB689B6B9A1C81
:103C5C00FB689A63FB68DB8F9BB2013B9AB2FB68F3
:103C6C00DA8712E0FEF712FA0200BB69D31A3A683F
:103C7C009A4202D83B68013302D13B68002B04D135
:103C8C001F23FB1803221A7079E0FB68DB8F9BB2B1
:103C9C00002BCDD14FE0FB685B68002B04D01623C2
:103CAC00FB181B88012B41D1FB689A6BFB681B68C6
:103CBC000C3312781A70FB689B6B5A1CFB689A6366
:103CCC00FB68DB8F9BB2013B9AB2FB68DA872DE075
:103CDC00FB681B689B6802221340022B13D1FB6804
:103CEC009A6BFB681B680C3312781A70FB689B6B21
:103CFC005A1CFB689A63FB68DB8F9BB2013B9AB240
:103D0C00FB68DA8712E0FEF7C1F90200BB69D31A2F
:103D1C003A689A4202D83B68013302D13B68002BC7
:103D2C0004D11F23FB1803221A7028E0FB68DB8FD9
:103D3C009BB2002BCCD1BA693968FB68180001F032
:103D4C0007FA031E02D0FB6820221A66FB689B68E8
:103D5C00002B0AD100233B61FB681B68DB683B61CD
:103D6C00FB681B689B683B613B69FB681B6E002B07
:103D7C0004D01F23FB1801221A7000E0C046FB6818
:103D8C005D2201219954FB685C22002199541F2368
:103D9C00FB181B781800BD4608B080BD80B58AB0F2
:103DAC0000AFF860B9607A601A00BB1C1A8001235E
:103DBC007B622323FB1800221A70FB685C229B5C3D
:103DCC00012B01D10223B5E1FB685C22012199543E
:103DDC00FEF75CF90300FB611B203B18FA685D21C0
:103DEC00525C1A70FB685B687B611223FB18BA1C6F
:103DFC0012881A803B181B78012B11D07A69822308
:103E0C005B009A4207D1FB689B68002B03D13B18DF
:103E1C001B78042B04D02323FB1802221A707EE19A
:103E2C00BB68002B06D07B68002B03D0BB1C1B8807
:103E3C00002B04D12323FB1801221A706FE1FB68BD
:103E4C005D229B5CDBB2042B03D0FB685D22052159
:103E5C009954FB6800221A66FB687A681A64FB683E
:103E6C00BA1C462112885A52FB68BA1C442112888B
:103E7C005A52FB68BA689A63FB68BA1C1288DA87D4
:103E8C00FB68BA1C12889A87FB680022DA64FB680C
:103E9C0000221A65FB68DA68E023DB009A4208D935
:103EAC00FB681B685A68FB681B68A4490A405A6087
:103EBC0008E0FB681B685A68FB681B688021490195
:103ECC000A435A60FB681B681B6840221340402B56
:103EDC0007D0FB681B681A68FB681B6840210A4303
:103EEC001A60FB68DA68E023DB009A4200D87FE0B6
:103EFC00FB685B68002B05D01223FB181B88012B79
:103F0C0000D069E0FB689B6B1A88FB681B68DA6061
:103F1C00FB689B6B9A1CFB689A63FB68DB8F9BB2FC
:103F2C00013B9AB2FB68DA8756E0FB681B689B681A
:103F3C0002221340022B1BD1FB68DB8F9BB2002BA0
:103F4C0016D07B6A012B13D1FB689B6B1A88FB681C
:103F5C001B68DA60FB689B6B9A1CFB689A63FB68B6
:103F6C00DB8F9BB2013B9AB2FB68DA8700237B6242
:103F7C00FB681B689B6801221340012B1CD1FB685A
:103F8C0046229B5A9BB2002B16D0FB681B68DA6842
:103F9C00FB681B6C92B21A80FB681B6C9A1CFB684A
:103FAC001A64FB6846229B5A9BB2013B99B2FB6890
:103FBC004622995201237B62FEF768F80200FB69E6
:103FCC00D31A3A6B9A4207D83B6B013304D02323A4
:103FDC00FB1803221A70A2E0FB68DB8F9BB2002B4C
:103FEC00A3D1FB6846229B5A9BB2002B9DD185E046
:103FFC00FB685B68002B05D01223FB181B88012B78
:10400C0000D070E0FB689A6BFB681B680C3312786D
:10401C001A70FB689B6B5A1CFB689A63FB68DB8FFE
:10402C009BB2013B9AB2FB68DA875CE0FB681B68C9
:10403C009B6802221340022B1CD1FB68DB8F9BB2C6
:10404C00002B17D07B6A012B14D1FB689A6BFB6891
:10405C001B680C3312781A70FB689B6B5A1CFB683C
:10406C009A63FB68DB8F9BB2013B9AB2FB68DA87E1
:10407C0000237B62FB681B689B6801221340012BA9
:10408C001ED1FB6846229B5A9BB2002B18D0FB68B2
:10409C001B680C331A00FB681B6C1278D2B21A70B6
:1040AC00FB681B6C5A1CFB681A64FB6846229B5A03
:1040BC009BB2013B99B2FB684622995201237B6269
:1040CC00FDF7E4FF0200FB69D31A3A6B9A4202D85F
:1040DC003B6B013302D13B6B002B04D12323FB1828
:1040EC0003221A701BE0FB68DB8F9BB2002B9DD167
:1040FC00FB6846229B5A9BB2002B97D1FA69396B0D
:10410C00FB68180001F024F8031E07D02323FB18CA
:10411C0001221A70FB6820221A6600E0C046FB6878
:10412C005D2201219954FB685C22002199542323C0
:10413C00FB181B781800BD460AB080BDFFEFFFFFCF
:10414C0080B586B000AFF860B960BB1D1A8017232C
:10415C00FB1800221A70FB685C229B5C012B01D1BE
:10416C000223E7E0FB685C2201219954FB685D2285
:10417C009B5CDBB2012B04D01723FB1802221A70B4
:10418C00D1E0BB68002B03D0BB1D1B88002B04D1D6
:10419C001723FB1801221A70C5E0FB685D2203216E
:1041AC009954FB6800221A66FB68BA689A63FB682C
:1041BC00BA1D12889A87FB68BA1D1288DA87FB68C9
:1041CC0000221A64FB6800221A65FB680022DA647C
:1041DC00FB68442200219952FB6846220021995227
:1041EC00FB689A6880231B029A4210D1FB681B68FB
:1041FC001A68FB681B6840218A431A60FB681B68BD
:10420C001A68FB681B688021C9010A431A60FB68A5
:10421C005B6D4A4A1A63FB685B6D494ADA62FB685C
:10422C005B6D484A5A63FB685B6D00229A63FB68BE
:10423C001B685A68FB681B6843490A405A60FB6854
:10424C00DA68E023DB009A422FD8FB685B6D9A6931
:10425C008023DB009A4228D1FB68DB8F9BB21A00CB
:10426C00012313400FD1FB681B685A68FB681B685D
:10427C0035490A405A60FB68DB8F9BB25B089AB2E7
:10428C00FB68DA8711E0FB681B685A68FB681B68DF
:10429C008021C9010A435A60FB68DB8F9BB25B0823
:1042AC009BB201339AB2FB68DA87FB68586DFB68E6
:1042BC009B6B1900FB681B680C331A00FB68DB8FC7
:1042CC009BB2FEF779F8031E0ED0FB681B6E102212
:1042DC001A43FB681A661723FB1801221A70FB6835
:1042EC005D22012199541EE0FB681B681B6840226B
:1042FC001340402B07D0FB681B681A68FB681B68CF
:10430C0040210A431A60FB681B685A68FB681B68EB
:10431C0020210A435A60FB681B685A68FB681B68BB
:10432C0002210A435A60FB685C220021995417232E
:10433C00FB181B781800BD4606B080BD774D0008F1
:10434C00854B0008D14D0008FFBFFFFF90B587B02B
:10435C0000AFF860B960BB1D1A801723FB18002250
:10436C001A70FB689B68002B12D1FB685A68822379
:10437C005B009A420CD1FB685D2204219954BB1D51
:10438C001B88BA68B968F86800F01EF903000BE1E5
:10439C00FB685C229B5C012B01D1022304E1FB68CE
:1043AC005C2201219954FB685D229B5CDBB2012BE2
:1043BC0004D01723FB1802221A70EEE0BB68002B06
:1043CC0003D0BB1D1B88002B04D11723FB18012223
:1043DC001A70E2E0FB685D2204219954FB6800220C
:1043EC001A66FB68BA681A64FB68BA1D4421128805
:1043FC005A52FB68BA1D462112885A52FB68002299
:10440C00DA64FB6800221A65FB6800229A87FB6855
:10441C000022DA87FB689A6880231B029A420FD12C
:10442C00FB681B681A68FB681B6840218A431A608A
:10443C00FB681B681A68FB681B685D490A401A60B8
:10444C00FB681B685A68FB681B685A490A405A602B
:10445C00FB68DA68E023DB009A4208D9FB681B682A
:10446C005A68FB681B6854490A405A6045E0FB686F
:10447C001B685A68FB681B68802149010A435A6013
:10448C00FB689B6D9A698023DB009A4235D1FB68EF
:10449C001B685A68FB681B6847490A405A60FB68EE
:1044AC0046229B5A9BB21A000123134011D1FB6880
:1044BC001B685A68FB681B683E490A405A60FB68D7
:1044CC0046229B5A9BB25B0899B2FB6846229952D2
:1044DC0013E0FB681B685A68FB681B688021890124
:1044EC000A435A60FB6846229B5A9BB25B089BB2FC
:1044FC00013399B2FB6846229952FB689B6D2F4A97
:10450C001A63FB689B6D2E4ADA62FB689B6D2D4A21
:10451C005A63FB689B6D00229A63FB68986DFB687D
:10452C001B680C331900FB681B6C1C00FB684622D3
:10453C009B5A9BB22200FDF73FFF031E0ED0FB6877
:10454C001B6E10221A43FB681A661723FB180122F4
:10455C001A70FB685D22012199541EE0FB681B68F0
:10456C001B6840221340402B07D0FB681B681A685D
:10457C00FB681B6840210A431A60FB681B685A6879
:10458C00FB681B6820210A435A60FB681B685A6849
:10459C00FB681B6801210A435A60FB685C220021FE
:1045AC0099541723FB181B781800BD4607B090BD13
:1045BC00FFBFFFFFFFDFFFFFFFEFFFFF954D000881
:1045CC00314C0008D14D000890B587B000AFF860B1
:1045DC00B9607A601A00BB1C1A801723FB180022E2
:1045EC001A70FB685C229B5C012B01D1022386E1D3
:1045FC00FB685C220121995416203B18FA685D2156
:10460C00525C1A70FB685B683B6101007B181B787D
:10461C00012B11D03A6982235B009A4207D1FB68C7
:10462C009B68002B03D17B181B78042B04D0172319
:10463C00FB1802221A705BE1BB68002B06D07B686A
:10464C00002B03D0BB1C1B88002B04D11723FB1899
:10465C0001221A704CE1FB685D229B5CDBB2042BDF
:10466C0003D0FB685D2205219954FB6800221A6671
:10467C00FB68BA689A63FB68BA1C12889A87FB6855
:10468C00BA1C1288DA87FB687A681A64FB68BA1C51
:10469C00442112885A52FB68BA1C462112885A527D
:1046AC00FB680022DA64FB6800221A65FB681B6851
:1046BC005A68FB681B6894490A405A60FB68DA68C0
:1046CC00E023DB009A4208D9FB681B685A68FB6838
:1046DC001B688E490A405A6074E0FB681B685A6874
:1046EC00FB681B68802149010A435A60FB685B6DBB
:1046FC009A698023DB009A4227D1FB689B8F1A00B2
:10470C00012313400FD1FB681B685A68FB681B68B8
:10471C007F490A405A60FB68DB8F9BB25B089AB2F8
:10472C00FB68DA8711E0FB681B685A68FB681B683A
:10473C008021C9010A435A60FB68DB8F9BB25B087E
:10474C009BB201339AB2FB68DA87FB689B6D9A695E
:10475C008023DB009A4235D1FB681B685A68FB68E2
:10476C001B686A490A405A60FB6846229B5A9BB2F6
:10477C001A000123134011D1FB681B685A68FB68AF
:10478C001B6864490A405A60FB6846229B5A9BB2DC
:10479C005B0899B2FB684622995213E0FB681B68D0
:1047AC005A68FB681B68802189010A435A60FB68C0
:1047BC0046229B5A9BB25B089BB2013399B2FB68B1
:1047CC0046229952FB685D229B5CDBB2042B08D11C
:1047DC00FB689B6D504A1A63FB689B6D4F4ADA620B
:1047EC0007E0FB689B6D4E4A1A63FB689B6D4D4A54
:1047FC00DA62FB689B6D4C4A5A63FB689B6D002226
:10480C009A63FB68986DFB681B680C331900FB6896
:10481C001B6C1C00FB6846229B5A9BB22200FDF7C6
:10482C00CBFD031E0ED0FB681B6E10221A43FB68D7
:10483C001A661723FB1801221A70FB685D220121EE
:10484C00995455E0FB681B685A68FB681B6801218A
:10485C000A435A60FB685B6D00221A63FB685B6D50
:10486C000022DA62FB685B6D00225A63FB685B6DA9
:10487C0000229A63FB68586DFB689B6B1900FB6800
:10488C001B680C331A00FB68DB8F9BB2FDF794FDA1
:10489C00031E0ED0FB681B6E10221A43FB681A66AF
:1048AC001723FB1801221A70FB685D220121995411
:1048BC001EE0FB681B681B6840221340402B07D08E
:1048CC00FB681B681A68FB681B6840210A431A6066
:1048DC00FB681B685A68FB681B6820210A435A60F6
:1048EC00FB681B685A68FB681B6802210A435A6004
:1048FC00FB685C22002199541723FB181B781800C5
:10490C00BD4607B090BDC046FF9FFFFFFFEFFFFF06
:10491C00FFBFFFFFFFDFFFFF954D0008314C000884
:10492C00B34D0008E14C0008D14D000880B588B0AB
:10493C0000AF78607B681B685B68FB617B681B68F9
:10494C009B68BB61BB699B091A00012313400FD103
:10495C00BB69012213400BD0FB699B091A00012390
:10496C00134005D07B68DB6C7A6810009847D5E063
:10497C00BB695B081A00012313400BD0FB69DB09F0
:10498C001A000123134005D07B681B6D7A68100058
:10499C009847C3E0BB695B091A00012313400CD193
:1049AC00BB699B091A000123134006D1BB691B0A82
:1049BC001A000123134000D1B0E0FB695B091A0017
:1049CC000123134000D1A9E0BB699B091A00012304
:1049DC00134023D07B685D229B5CDBB2032B11D090
:1049EC007B681B6E04221A437B681A6600237B616A
:1049FC007B681B68DB687B617B681B689B687B61E1
:104A0C007B690BE000233B617B681B68DB683B61C7
:104A1C007B681B689B683B613B697FE0BB695B09FA
:104A2C001A000123134014D07B681B6E01221A4319
:104A3C007B681A660023FB607B681B689B68FB60C5
:104A4C007B681B681A687B681B6840218A431A6064
:104A5C00FB68BB691B0A1A00012313400CD07B684E
:104A6C001B6E08221A437B681A660023BB607B68A6
:104A7C001B689B68BB60BB687B681B6E002B4CD0B3
:104A8C007B681B685A687B681B68E0218A435A6004
:104A9C007B685D2201219954FB690222134003D1EA
:104AAC00FB690122134032D07B681B685A687B6813
:104ABC001B6803218A435A607B689B6D002B10D0C6
:104ACC007B689B6D174A9A637B689B6D1800FDF79A
:104ADC005BFD031E05D07B681B6E40221A437B686E
:104AEC001A667B685B6D002B16D07B685B6D0D4A7C
:104AFC009A637B685B6D1800FDF746FD031E0BD0B7
:104B0C007B681B6E40221A437B681A6604E07B6844
:104B1C00180000F029F800E0C046C046BD4608B0B9
:104B2C0080BDC046134E000880B582B000AF7860DF
:104B3C00C046BD4602B080BD80B582B000AF786083
:104B4C00C046BD4602B080BD80B582B000AF786073
:104B5C00C046BD4602B080BD80B582B000AF786063
:104B6C00C046BD4602B080BD80B582B000AF786053
:104B7C00C046BD4602B080BD80B586B000AF78603F
:104B8C007B689B6A7B61FDF781FA03003B617B6864
:104B9C001B681B6820221340202B3CD07B691B68B0
:104BAC005A687B691B6820218A435A607B691B68A1
:104BBC005A687B691B6802218A435A603A697B698F
:104BCC006421180000F0C4FA031E05D07B691B6E2B
:104BDC0020221A437B691A667B699B68002B0AD1D9
:104BEC000023FB607B691B68DB68FB607B691B68CF
:104BFC009B68FB60FB687B690022DA877B695D221E
:104C0C00012199547B691B6E002B04D07B69180021
:104C1C00FFF7AAFF03E07B691800FDF735F8BD46E6
:104C2C0006B080BD80B584B000AF78607B689B6AAD
:104C3C00FB60FDF72BFA0300BB607B681B681B68ED
:104C4C0020221340202B3ED0FB681B685A68FB685F
:104C5C001B6820218A435A60FB689B68002B0ED18D
:104C6C00FB685A6882235B009A4208D1FB681B6878
:104C7C005A68FB681B6803218A435A6007E0FB688B
:104C8C001B685A68FB681B6801218A435A60BA6822
:104C9C00FB686421180000F0FDF9031E02D0FB68CC
:104CAC0020221A66FB68462200219952FB685D227D
:104CBC0001219954FB681B6E002B04D0FB68180073
:104CCC00FFF752FF03E0FB681800FCF7EBFFBD4653
:104CDC0004B080BD80B584B000AF78607B689B6AFF
:104CEC00FB60FDF7D3F90300BB607B681B681B6896
:104CFC0020221340202B31D0FB681B685A68FB68BC
:104D0C001B6820218A435A60BA68FB68642118002A
:104D1C0000F01EFA031E05D0FB681B6E20221A43FE
:104D2C00FB681A66FB681B685A68FB681B680321E2
:104D3C008A435A60FB680022DA87FB68462200210E
:104D4C009952FB685D2201219954FB681B6E002B64
:104D5C0004D0FB681800FFF707FF03E0FB6818009E
:104D6C00FFF7E2FEBD4604B080BD80B584B000AF55
:104D7C0078607B689B6AFB60FB681800FFF7DCFEC1
:104D8C00C046BD4604B080BD80B584B000AF78602D
:104D9C007B689B6AFB60FB681800FFF7D5FEC0467A
:104DAC00BD4604B080BD80B584B000AF78607B6830
:104DBC009B6AFB60FB681800FFF7CEFEC046BD4641
:104DCC0004B080BD80B584B000AF78607B689B6A0E
:104DDC00FB60FB681B685A68FB681B6803218A43ED
:104DEC005A60FB681B6E10221A43FB681A66FB683C
:104DFC005D2201219954FB681800FFF7B5FEC046EF
:104E0C00BD4604B080BD80B584B000AF78607B68CF
:104E1C009B6AFB60FB68462200219952FB680022CA
:104E2C00DA87FB681800FFF79FFEC046BD4604B04A
:104E3C0080BD000080B588B000AFF860B9603B6001
:104E4C00FB1D1A70FDF722F90200BB6A9B1A3A6827
:104E5C00D318FB61FDF71AF90300BB613A4B1B68D1
:104E6C005B011B0DFA6953437B6158E03B680133CE
:104E7C0055D0FDF70BF90200BB69D31AFA699A42B7
:104E8C0002D9FB69002B42D1FB681B685A68FB688E
:104E9C001B68E0218A435A60FB685A6882235B00D6
:104EAC009A4213D1FB689A6880231B029A4205D060
:104EBC00FB689A688023DB009A4207D1FB681B6869
:104ECC001A68FB681B6840218A431A60FB689A6A5F
:104EDC0080239B019A4210D1FB681B681A68FB68FF
:104EEC001B681A490A401A60FB681B681A68FB6841
:104EFC001B68802189010A431A60FB685D2201212D
:104F0C009954FB685C2200219954032317E07B69B8
:104F1C00002B01D10023FB617B69013B7B61FB68AA
:104F2C001B689B68BA681340BA68D31A5A4253413B
:104F3C00DBB21A00FB1D1B789A4297D10023180094
:104F4C00BD4608B080BDC04608000020FFDFFFFF53
:104F5C0080B58AB000AFF860B9607A603B60172307
:104F6C00FB1800221A70FDF791F802003B6B9B1A9C
:104F7C003A68D3187B62FDF789F803003B62FB6843
:104F8C001B680C33FB61414B1A6813009B009B1888
:104F9C00DA00D31A1B0D7A6A5343BB6168E0BA6816
:104FAC00C023DB009A420AD17B68002B07D1FB6936
:104FBC001B78DAB217217B181A707B181B783B68A8
:104FCC00013355D0FDF762F802003B6AD31A7A6AB6
:104FDC009A4202D97B6A002B42D1FB681B685A6843
:104FEC00FB681B68E0218A435A60FB685A6882237D
:104FFC005B009A4213D1FB689A6880231B029A4289
:10500C0005D0FB689A688023DB009A4207D1FB68C5
:10501C001B681A68FB681B6840218A431A60FB688E
:10502C009A6A80239B019A4210D1FB681B681A680C
:10503C00FB681B6816490A401A60FB681B681A68F3
:10504C00FB681B68802189010A431A60FB685D229A
:10505C0001219954FB685C2200219954032310E030
:10506C00BB69002B01D100237B62BB69013BBB6197
:10507C00FB681B689B68BA6813407A689A428ED1A9
:10508C0000231800BD460AB080BDC04608000020B1
:10509C00FFDFFFFF80B586B002AFF860B9607A60C1
:1050AC00FB685A6882235B009A4213D1FB689A68AA
:1050BC0080231B029A4205D0FB689A688023DB0090
:1050CC009A4207D1FB681B681A68FB681B68402171
:1050DC008A431A60BA68F8687B6800931300002250
:1050EC008021FFF7A7FE031E07D0FB681B6E202252
:1050FC001A43FB681A66032326E0FB685A6882236E
:10510C005B009A421FD1FB689A6880231B029A426B
:10511C0005D0FB689A688023DB009A4213D1BA68E9
:10512C00C023D900F8687B68009313000022FFF7B6
:10513C000FFF031E07D0FB681B6E20221A43FB686F
:10514C001A66032300E000231800BD4604B080BD9E
:10515C0080B586B002AFF860B9607A60BA68C023D7
:10516C005901F8687B68009313000022FFF7F0FEEA
:10517C00031E07D0FB681B6E20221A43FB681A66BD
:10518C00032327E0BA68F8687B68009313000022B9
:10519C008021FFF74FFE031E07D0FB681B6E2022F9
:1051AC001A43FB681A66032314E0BA68C023D900BB
:1051BC00F8687B68009313000022FFF7C9FE031EFA
:1051CC0007D0FB681B6E20221A43FB681A66032368
:1051DC0000E000231800BD4604B080BD80B582B04D
:1051EC0000AF78607B68002B01D101234AE07B681B
:1051FC003D229B5CDBB2002B07D17B683C2200215B
:10520C0099547B681800FCF7A5FB7B683D220221B2
:10521C0099547B681A687B6804331900100000F0FD
:10522C0027FA7B684822012199547B683E22012190
:10523C0099547B683F22012199547B6840220121BB
:10524C0099547B684122012199547B6842220121A7
:10525C0099547B684322012199547B684422012193
:10526C0099547B684522012199547B68462201217F
:10527C0099547B684722012199547B683D22012176
:10528C00995400231800BD4602B080BD80B584B08F
:10529C0000AF78607B683D229B5CDBB2012B01D0B8
:1052AC00012335E07B683D22022199547B681B6801
:1052BC00194A93420AD07B681A688023DB059A420C
:1052CC0004D07B681B68154A934216D17B681B6817
:1052DC009B68134A1340FB60FB68062B16D0FA68D8
:1052EC0080235B029A4211D07B681B681A687B682A
:1052FC001B6801210A431A6008E07B681B681A6866
:10530C007B681B6801210A431A6000E0C046002339
:10531C001800BD4604B080BD002C014000040040C4
:10532C000700010080B584B000AF78607B683D2237
:10533C009B5CDBB2012B01D001233DE07B683D225D
:10534C00022199547B681B68DA687B681B68012111
:10535C000A43DA607B681B68194A93420AD07B685F
:10536C001A688023DB059A4204D07B681B68154AB7
:10537C00934216D17B681B689B68134A1340FB60F1
:10538C00FB68062B16D0FA6880235B029A4211D078
:10539C007B681B681A687B681B6801210A431A60CA
:1053AC0008E07B681B681A687B681B6801210A434C
:1053BC001A6000E0C04600231800BD4604B080BD52
:1053CC00002C0140000400400700010080B582B0B1
:1053DC0000AF78607B681B681B6902221340022BAC
:1053EC0024D17B681B68DB6802221340022B1DD181
:1053FC007B681B68032252421A617B6801221A7770
:10540C007B681B689B690322134004D07B681800DF
:10541C0000F016F907E07B68180000F009F97B68CA
:10542C00180000F015F97B6800221A777B681B685E
:10543C001B6904221340042B25D17B681B68DB6895
:10544C0004221340042B1ED17B681B680522524298
:10545C001A617B6802221A777B681B689A69C023E1
:10546C009B00134004D07B68180000F0E9F807E0BB
:10547C007B68180000F0DCF87B68180000F0E8F896
:10548C007B6800221A777B681B681B690822134013
:10549C00082B24D17B681B68DB6808221340082B7F
:1054AC001DD17B681B68092252421A617B68042259
:1054BC001A777B681B68DB690322134004D07B6876
:1054CC00180000F0BDF807E07B68180000F0B0F899
:1054DC007B68180000F0BCF87B6800221A777B68A8
:1054EC001B681B6910221340102B25D17B681B688D
:1054FC00DB6810221340102B1ED17B681B68112215
:10550C0052421A617B6808221A777B681B68DA6939
:10551C00C0239B00134004D07B68180000F090F867
:10552C0007E07B68180000F083F87B68180000F037
:10553C008FF87B6800221A777B681B681B69012235
:10554C001340012B0FD17B681B68DB6801221340D1
:10555C00012B08D17B681B68022252421A617B68BE
:10556C001800FBF7B5F97B681B681B698022134098
:10557C00802B0FD17B681B68DB6880221340802B4B
:10558C0008D17B681B68812252421A617B68180023
:10559C0000F0ECF87B681B681A6980235B001A40EA
:1055AC0080235B009A420ED17B681B68DB688022EB
:1055BC001340802B07D17B681B681C4A1A617B68DF
:1055CC00180000F0DBF87B681B681B694022134055
:1055DC00402B0FD17B681B68DB6840221340402BAB
:1055EC0008D17B681B68412252421A617B68180003
:1055FC0000F036F87B681B681B6920221340202BB7
:10560C000FD17B681B68DB6820221340202B08D14C
:10561C007B681B68212252421A617B68180000F0DB
:10562C009DF8C046BD4602B080BDC046FFFEFFFFE0
:10563C0080B582B000AF7860C046BD4602B080BD78
:10564C0080B582B000AF7860C046BD4602B080BD68
:10565C0080B582B000AF7860C046BD4602B080BD58
:10566C0080B582B000AF7860C046BD4602B080BD48
:10567C0080B584B000AF786039607B681B68FB60D4
:10568C007B68304A934208D07A688023DB059A42C3
:10569C0003D07B682C4A934208D1FB687022934359
:1056AC00FB603B685B68FA681343FB607B68254AC8
:1056BC00934214D07A688023DB059A420FD07B6822
:1056CC00214A93420BD07B68204A934207D07B68D7
:1056DC001F4A934203D07B681E4A934208D1FB6851
:1056EC001D4A1340FB603B68DB68FA681343FB60A0
:1056FC00FB68802293431A003B685B691343FB6091
:10570C007B68FA681A603B689A687B68DA623B6867
:10571C001A687B689A627B680A4A934207D07B6856
:10572C000B4A934203D07B680A4A934203D13B68ED
:10573C001A697B681A637B6801225A61C046BD46B0
:10574C0004B080BD002C014000040040002000404B
:10575C000044014000480140FFFCFFFF80B582B0CF
:10576C0000AF7860C046BD4602B080BD80B582B047
:10577C0000AF7860C046BD4602B080BD80B582B037
:10578C0000AF7860C046BD4602B080BD80B582B027
:10579C0000AF78607B68002B01D1012346E07B6869
:1057AC0084229B58002B07D17B68802200219954BE
:1057BC007B681800FCF70CF97B6884222421995033
:1057CC007B681B681A687B681B6801218A431A6016
:1057DC007B68180000F096FD0300012B01D101231A
:1057EC0024E07B689B6A002B03D07B68180001F0D7
:1057FC0017F87B681B685A687B681B680D490A4060
:10580C005A607B681B689A687B681B682A218A43EC
:10581C009A607B681B681A687B681B6801210A43C5
:10582C001A607B68180001F0AFF803001800BD4641
:10583C0002B080BDFFB7FFFF80B58AB002AFF86041
:10584C00B9603B60BB1D1A80FB6884229B58202BDF
:10585C0000D097E0BB68002B03D0BB1D1B88002B2E
:10586C0001D101238FE0FB689A6880235B019A4287
:10587C0009D1FB681B69002B05D1BB6801221340C1
:10588C0001D001237FE0FB6880229B5C012B01D1BE
:10589C00022378E0FB68802201219954FB688C225A
:1058AC0000219950FB68842221219950FCF7EEFBD2
:1058BC0003007B61FB68BA1D542112885A52FB68A5
:1058CC00BA1D562112885A52FB689A6880235B01D4
:1058DC009A4208D1FB681B69002B04D10023FB61A1
:1058EC00BB68BB6103E0BB68FB610023BB61FB6869
:1058FC008022002199542CE07A69F8683B68009367
:10590C0013000022802101F089F8031E01D003232B
:10591C0039E0FB69002B0BD1BB691B881A00FB68B3
:10592C001B68D205D20D9A62BB690233BB6107E0DA
:10593C00FB691A78FB681B689A62FB690133FB618F
:10594C00FB6856229B5A9BB2013B99B2FB685622CC
:10595C009952FB6856229B5A9BB2002BCCD17A6988
:10596C00F8683B68009313000022402101F056F8C0
:10597C00031E01D0032306E0FB68842220219950EA
:10598C00002300E002231800BD4608B080BD0000D3
:10599C0080B588B000AFF860B960BB1D1A80FB6899
:1059AC0088229B58202B55D1BB68002B03D0BB1DE4
:1059BC001B88002B01D101234DE0FB689A688023E2
:1059CC005B019A4209D1FB681B69002B05D1BB68AE
:1059DC000122134001D001233DE0FB6880229B5C37
:1059EC00012B01D1022336E0FB688022012199545E
:1059FC00FB680022DA66FB681B68194A934220D0C8
:105A0C00FB681B685A6880231B04134019D0EFF302
:105A1C0010833B613B69FB6101237B617B6983F3F1
:105A2C001088C046FB681B681A68FB681B688021DD
:105A3C00C9040A431A60FB69BB61BB6983F3108814
:105A4C00C046BB1D1A88B968FB68180001F0AEF897
:105A5C00030000E002231800BD4608B080BDC0461C
:105A6C000080004080B588B000AFF860B960BB1D05
:105A7C001A80FB6888229B58202B55D1BB68002BC1
:105A8C0003D0BB1D1B88002B01D101234DE0FB680B
:105A9C009A6880235B019A4209D1FB681B69002B31
:105AAC0005D1BB680122134001D001233DE0FB6806
:105ABC0080229B5C012B01D1022336E0FB68802203
:105ACC0001219954FB680022DA66FB681B68194AAD
